:020000040800F2
:10000000FFFF0020DD6800084B4400084D44000855
:100010004F44000851440008534400080000000009
:10002000000000000000000000000000554400082F
:100030005744000800000000594400085D440008CF
:100040002969000829690008296900082969000848
:100050002969000829690008114600082969000873
:100060002969000829690008296900082969000828
:100070002969000829690008296900082969000818
:1000800029690008296900082969000800000000A2
:1000900000000000000000000000000029690008C6
:1000A00029690008296900082969000829690008E8
:1000B00029690008296900082969000829690008D8
:1000C00029690008296900082969000829690008C8
:1000D0002969000829690008296900080000000052
:1000E000296900082969000821460008000000006D
:1000F000000000000000000000000000693A000855
:100100000000000029690008296900081D3B00085B
:1001100000000000000000000000000000000000DF
:100120002969000829690008296900082969000867
:100130002969000800000000000000000000000025
:100140000000000000000000000000005146000810
:100150002969000829690008296900082969000837
:10016000296900082969000800000000000000005B
:10017000000000000000000000000000000000007F
:080180000000000029690008DD
:1001880010B5054C237833B9044B13B10448AFF3C9
:1001980000800123237010BDA0050020000000008E
:1001A800246A000808B5064B1BB106480649AFF398
:1001B80000800648036813B1054B03B1984708BD92
:1001C80000000000246A0008A4050020A005002003
:1001D8000000000008B54FF48070012101F0B4FC64
:1001E8004FF480700021BDE8084001F0ADBC00BFAD
:1001F8004268D1F80CC0134B2DE9F00122F040728F
:100208000C6891F804800F698E684D7922F4807229
:10021800224342EA0822426084684CEA07023243D9
:100228002340134343EA450383600B7DC26A013BC5
:10023800DBB222F4700242EA0353C362BDE8F00164
:10024800704700BFFDF7FFC000230122027503605D
:10025800037143718360C3600361704770B490E8B1
:100268004200064A8568C468054B506831432943F3
:10027800214303400B43536070BC70470023014087
:10028800E030FCFF0023036043608360C360704775
:10029800836819B923F001038360704743F00103B1
:1002A80083607047436823F4400323F400731943C1
:1002B8004160704741628262704700BF436823F023
:1002C8001F03194341607047054B5A6818B922F457
:1002D80000025A60704742F400025A60704700BF3B
:1002E80000230140054B5A6818B922F480025A606D
:1002F800704742F480025A60704700BF00230140F3
:10030800092970B41ED9A1F10A0404EB4404C56894
:100318000726A64003FA04F425EA06032343062A1F
:10032800C3601CD90C2A28D90D3AC46A02EB820290
:100338001F23934024EA030301FA02F21A43C2621C
:1003480070BC704701EB410405690726A64003FA13
:1003580004F425EA06032343062A0361E2D8013A96
:10036800446B02EB82021F23934024EA030301FA41
:1003780002F21A43426370BC7047073A046B02EBFF
:1003880082021F23934024EA030301FA02F21A436C
:10039800026370BC704700BF836843F0804383608A
:1003A800704700BF8068C0F380707047836819B9D0
:1003B80023F480638360704743F4806383607047ED
:1003C800836819B923F002038360704743F002037E
:1003D800836070474368013923F4604343EA41313D
:1003E80041607047436819B923F40063436070475C
:1003F80043F4006343607047C06C80B2704700BF2D
:10040800014B1868704700BF08230140836819B979
:1004180023F480738360704743F48073836070476C
:10042800836819B923F400738360704743F4007339
:1004380083607047054B5A6818B922F400525A6015
:10044800704742F400525A60704700BF00230140D1
:10045800092970B41BD801EB410405690726A64099
:1004680003FA04F425EA060323430361836B02328B
:10047800C3F30154121BD2B202EB82021F24944030
:1004880023EA040391400B43836370BC7047A1F1D6
:100498000A0404EB4404C5680726A64003FA04F4DA
:1004A80025EA06032343C360E0E700BF836B0139F5
:1004B80023F4401343EA01518163704782B000235B
:1004C80001930190019B19440191019B1A6002B0AC
:1004D800704700BF836823F4702319438160704715
:1004E800836823F44013194381607047836843F499
:1004F80080038360704700BF8068C0F380507047F6
:10050800436819B923F480634360704743F48063F8
:1005180043607047436819B923F4805343607047B8
:1005280043F480534360704782B0002301930190E5
:10053800019B283319440191019B186880B202B0CD
:10054800704700BF0123C9B203FA01F143681AB921
:1005580023EA01014160704719434160704700BFB9
:10056800036819420CBF002001207047C94301608D
:10057800704700BF4368006810EA112007D0C9B26D
:10058800012202FA01F119420CBF00200120704734
:100598006FEA11210160704710B4374A04680023DC
:1005A80024F00104212190420460036043608360C9
:1005B800C360036141614DD0304B984235D0304B18
:1005C800984239D02F4B98423DD02F4B984247D074
:1005D8002E4B984248D02E4B98421DD02D4B984216
:1005E8001ED02D4B984243D02C4B98421DD02C4BFB
:1005F800984221D02B4B984225D02B4B98422FD094
:100608002A4B984230D02A4B984205D0294B984221
:1006180006D05DF8044B7047274A43F8942CF8E756
:100628004FF03D5243F8AC2CF3E74FF4746243F8B3
:10063800202C5DF8044B70474FF4741243F8382CA3
:100648005DF8044B70474FF0746243F8502C5DF826
:10065800044B7047194B5DF8044B3D229A60704774
:10066800174A43F8642CD4E7164A43F87C2CD0E7A1
:100678003D2243F8082CCCE7106002402860024075
:10068800406002405860024070600240886002404A
:10069800A0600240B8600240106402402864024032
:1006A800406402405864024070640240886402401A
:1006B800A0640240B864024000003D20006002408F
:1006C8003D000020400F0020CA680B68D0F800C029
:1006D8002DE9F0074F698E69CD690C6AD1F834901D
:1006E800D1F8388042EA030A4AEA07073E434B6AD0
:1006F8004F6835432C4344EA03028B6A0D4ECC6A9B
:100708000D691A4342EA090949EA08080CEA06068B
:1007180048EA06060B6B896806604269234322F0A3
:1007280007021343436145608760C160BDE8F00775
:10073800704700BF3F801CF0002303604360836064
:10074800C360036143618361C3610362436283627F
:10075800C362036343638363704700BF036819B9C7
:1007680023F001030360704743F0010303607047FF
:10077800036819B923F400430360704743F4004346
:1007880003607047036819B923F0200303607047BA
:1007980043F020030360704741607047406880B2AF
:1007A800704700BF036822B923F400230360016186
:1007B800704743F40023036001617047036819B967
:1007C80023F480230360704743F480230360704759
:1007D8000AB9C16070470161704700BF0068C0F383
:1007E800C0407047006800F001007047406900F0A1
:1007F800380070470B4B0C4A10B40C4CA0428CBF0D
:10080800104618468B004CBF436803685DF8044BDC
:1008180021F0F02121F0821119420CBF00200120A3
:10082800704700BF00600240006402400F6402404D
:1008380010B4094A094C0A4BA0428CBF104618460E
:1008480011F0005F21F0F02121F0821114BFC16086
:1008580081605DF8044B7047006402400F640240F9
:10086800006002400B060CD54369AAB143F080032F
:10087800802943610FD0036801F01E01194301600C
:100888007047802907D0002AF5D1036801F01E01BE
:1008980023EA01010160704723F080038029436146
:1008A800F3D1704770B4114A114D124C21F0F02366
:1008B80023F0C316A84288BF224696B1046804F004
:1008C8001E0404EAD12489004CBF5268126823F040
:1008D800821313EA020002D0201C18BF012070BC4A
:1008E8007047446904F08004EDE700BF00600240EF
:1008F8000F6402400064024010B4094A094C0A4BD4
:10090800A0428CBF1046184611F0005F21F0F0217C
:1009180021F0821114BFC16081605DF8044B7047FB
:10092800006402400F64024000600240044B054925
:1009380000221A605A609A60DA605961704700BFF5
:10094800003C0140FFFF7F00837970B42BB31D4B3F
:1009580001681E6802794579CC4326401E605E68AE
:1009680002F1804202F59E3234405C6014682143F3
:10097800116002689868D14308409860D868102DC3
:1009880001EA0001D96014D005F1804303F59E33D4
:1009980070BC19680A431A6070470379016803F14B
:1009A800804303F59E3370BC1A6822EA01021A607C
:1009B8007047996811439960D9680A43DA6070BC36
:1009C800704700BF003C014000230C2242710360C5
:1009D80003718371704700BF024B1A691043186195
:1009E800704700BF003C0140034B5B6918420CBFD5
:1009F80000200120704700BF003C0140014B5861B6
:100A0800704700BF003C0140034B5B6918420CBFB4
:100A180000200120704700BF003C0140014B586195
:100A2800704700BF003C0140014BC0B218707047CE
:100A3800003C0240054B1A6818B922F480721A600B
:100A4800704742F480721A60704700BF003C024051
:100A5800054B1A6818B922F400721A60704742F4FC
:100A680000721A60704700BF003C0240054B1A68CC
:100A780018B922F480621A60704742F480621A60E2
:100A8800704700BF003C0240024B1A6842F4006203
:100A98001A607047003C0240024B1A6842F48052C8
:100AA8001A607047003C0240044B1A69002A03DAB6
:100AB8000349044A59605A60704700BF003C02402D
:100AC80023016745AB89EFCD024B1A6942F000421A
:100AD8001A617047003C0240044B5A69D20703D59B
:100AE8000349044A99609A60704700BF003C02407D
:100AF8003B2A19087F6E5D4C024B5A6942F001028D
:100B08005A617047003C0240034B1A7802F07F029A
:100B180010431870704700BF173C0240044B1A7806
:100B280002F0EF021A701A7810431870704700BF6D
:100B3800143C0240044B1A7802F0F3021A701A7837
:100B480010431870704700BF143C0240024B5869AC
:100B5800C0F34710704700BF003C0240014B1888A3
:100B680080B27047163C0240014B188880B270472B
:100B78001A3C0240014B188880B27047163C02406C
:100B8800014B188880B270471A3C0240024B187813
:100B9800AA3818BF01207047153C0240024B18784C
:100BA80000F00C00704700BF143C0240044B1A6967
:100BB80019B922EA0000186170471043186170479C
:100BC800003C0240034BDB6818420CBF00200120A8
:100BD800704700BF003C0240014BD860704700BF1F
:100BE800003C02400E4BDA68D00309D4DA68D1061B
:100BF80001D506207047DA68D20503D50220704770
:100C080001207047DA6812F0EF0F01D00720704713
:100C1800DB6813F0020F0CBF09200820704700BFE3
:100C2800003C024000B583B009238DF80730FFF778
:100C3800D9FF8DF807009DF80730012BF7D09DF8F4
:100C48000700C0B203B05DF804FB00BF70B50546ED
:100C580059B301292FD0022914BF4FF440764FF41D
:100C68000076FFF7DFFF092824D1144C236923F409
:100C78004073236121690E432661236923F0F80339
:100C88002361236943F002031D432561236943F46B
:100C980080332361FFF7C6FF236923F00203236132
:100CA800236923F0F803236170BD0E46FFF7BAFFEE
:100CB8000928DAD070BD4FF48076F7E7003C02408F
:100CC80038B50446FFF7AEFF3CB1012C08D0022C22
:100CD80014BF4FF440744FF40074092804D038BD91
:100CE80009284FF48074FAD10B4D2B6923F4407313
:100CF8002B612B691C432C612B6943F004032B6186
:100D08002B6943F480332B61FFF78CFF2B6923F0A9
:100D180004032B6138BD00BF003C024038B50446CF
:100D2800FFF780FF3CB1012C08D0022C14BF4FF410
:100D380040744FF40074092804D038BD09284FF4D2
:100D48008074FAD10B4D2B6923F440732B612B6906
:100D58001C432C612B6943F004032B612B6943F47A
:100D680080332B61FFF75EFF2B6923F004032B61AF
:100D780038BD00BF003C024038B50446FFF752FFBB
:100D88003CB1012C08D0022C14BF4FF440744FF42E
:100D98000074092804D038BD09284FF48074FAD1AA
:100DA8000B4D2B6923F440732B612B691C432C6179
:100DB8002B6943F400432B612B6943F480332B6187
:100DC800FFF730FF2B6923F400432B6138BD00BFC8
:100DD800003C0240F8B5074614461D46FFF722FFBF
:100DE800092800D0F8BD0B4E336923F440733361F2
:100DF800336943F440733361336943F0010333616A
:100E0800C7E90045FFF70EFF336923F0010333619B
:100E1800F8BD00BF003C024070B505460E46FFF71E
:100E280001FF092800D070BD0A4C236923F44073E0
:100E38002361236943F400732361236943F00103A9
:100E480023612E60FFF7EEFE236923F0010323617F
:100E580070BD00BF003C024070B505460E46FFF766
:100E6800E1FE092800D070BD0A4C236923F44073C1
:100E78002361236943F480732361236943F00103E9
:100E880023612E80FFF7CEFE236923F0010323613F
:100E980070BD00BF003C024070B505460E46FFF726
:100EA800C1FE092800D070BD094C236923F44073A2
:100EB800236123692361236943F0010323612E70B1
:100EC800FFF7B0FE236923F00103236170BD00BF63
:100ED800003C024038B505460C46FFF7A3FE09283A
:100EE80000D038BD054B1A881CB91543ADB21D801A
:100EF80038BD92B222EA05051D8038BD163C024075
:100F080038B505460C46FFF78DFE092800D038BDD8
:100F1800054B1A881CB91543ADB21D8038BD92B275
:100F280022EA05051D8038BD1A3C024038B5054641
:100F38000C46FFF777FE092800D038BD054B1A8804
:100F480024B992B222EA05051D8038BD1543ADB219
:100F58001D8038BD163C024038B505460C46FFF7E3
:100F680061FE092800D038BD054B1A8824B992B211
:100F780022EA05051D8038BD1543ADB21D8038BD78
:100F88001A3C024010B50446FFF74CFE092804BF7E
:100F9800014B1C7010BD00BF153C024070B50646E1
:100FA8000C461546FFF73EFE092807D1044B1A7870
:100FB80002F00F02164335432C431C7070BD00BF6E
:100FC800143C0240034B1A7842F002021A70FFF7F1
:100FD80029BE00BF143C024008B54B4B98422AD0AA
:100FE8004A4B984231D04A4B984238D0494B9842A4
:100FF8003FD0494B984246D0484B98424DD0484B39
:10100800984254D0474B98425BD0474B984262D0A5
:10101800464B98426BD0464B984200D008BD4FF4DF
:101028008060012100F060FD4FF480600021BDE880
:10103800084000F059BD0120014600F055FD01208F
:101048000021BDE8084000F04FBD0220012100F05A
:101058004BFD02200021BDE8084000F045BD0420FA
:10106800012100F041FD04200021BDE8084000F006
:101078003BBD0820012100F037FD08200021BDE814
:10108800084000F031BD1020012100F02DFD102096
:101098000021BDE8084000F027BD2020012100F014
:1010A80023FD20200021BDE8084000F01DBD4020A0
:1010B800012100F019FD40200021BDE8084000F0A2
:1010C80013BD8020012100F00FFD80200021BDE824
:1010D800084000F009BD4FF48070012100F004FDC4
:1010E8004FF480700021BDE8084000F0FDBC4FF4CB
:1010F8000070012100F0F8FC4FF400700021BDE8F9
:10110800084000F0F1BC00BF0000024000040240AB
:1011180000080240000C0240001002400014024087
:1011280000180240001C0240002002400024024037
:101138000028024000222DE9F00713460E68012717
:101148004FF0030804E00133102B02F102022CD007
:1011580007FA03F404EA0605A542F4D1D0F8009092
:1011680091F804C008FA02F4E44304EA0909C0F853
:101178000090D0F800900CFA02FA0CF1FF3C4AEA11
:101188000909BCF1010FC0F8009011D9C56891F8A0
:1011980007C02C40C460C5680CFA02F401332C4324
:1011A800102BC46002F10202D2D1BDE8F0077047EB
:1011B800D0F808A091F8059091F806C004EA0A0A48
:1011C800C0F808A0D0F808A009FA02F949EA0A0903
:1011D800C0F80890D0F8049029EA050545604568EC
:1011E8000CFA03FC1FFA8CFC4CEA05054560CDE7B8
:1011F80000234FF6FF720260037143718371C3715C
:10120800704700BF82B04FF480330193019B0B43BA
:101218000193019BC361C161019BC361C3690193D0
:10122800C369019302B07047036919420CBF0020DB
:1012380001207047006980B2704700BF43691942B6
:101248000CBF002001207047406980B2704700BF82
:1012580001837047418370470AB94183704701830E
:10126800704700BF41617047436959404161704709
:10127800CB0800EB830001F0070110B48900046A71
:101288000F238B4024EA03030362036A5DF8044BCF
:101298008A4013430362704708B5174B984212D02F
:1012A800164B98421BD0164B984200D008BD4FF4FD
:1012B8000000012100F03CFC4FF400000021BDE8D3
:1012C800084000F035BC4FF40010012100F030FC5C
:1012D8004FF400100021BDE8084000F029BC4FF48D
:1012E8008000012100F024FC4FF480000021BDE8BB
:1012F800084000F01DBC00BF0054004000580040EA
:10130800005C0040F0B5044685B068460D46A688E6
:1013180000F0F8FA029930482A68DFF8C4C0A0FB48
:10132800013026F03F063604800C360C87B23E4367
:10133800A680238823F001031B041B0C624523802D
:1013480023D85300B1FBF3F39BB2032B07F101073A
:1013580098BF04232784A38323886E89A8882989B2
:10136800AA899BB243F001032380238823F4816375
:1013780023F002031B0430431B0C03430A439BB2B4
:1013880092B22380228105B0F0BDEE884BF6FF7340
:101398009E421AD002EB820202EB8202B1FBF2F308
:1013A8009BB243F48043C3F30B020AB943F0010331
:1013B8004FF49671094A01FB00F082FB0010800986
:1013C800013043F400432084C5E702EB4202B1FB3D
:1013D800F2F39BB2E7E700BF83DE1B43D34D6210F5
:1013E800A0860100002310B44BF6FF7141F2883447
:1013F8004FF480420460C1808281838003814381ED
:101408005DF8044B704700BF038829B923F0010336
:101418001B041B0C038070479BB243F0010303803D
:10142800704700BF838C21B99BB243F010038384BB
:10143800704723F010031B041B0C8384704700BF04
:10144800838C9BB201F00F0123F00F0319438184B1
:10145800704700BF038829B923F480731B041B0C51
:10146800038070479BB243F480730380704700BFCA
:10147800038829B923F400731B041B0C03807047ED
:101488009BB243F400730380704700BF1AB901F0A0
:10149800FE010182704741F001010182704700BFDF
:1014A800038829B923F480631B041B0C038070474D
:1014B8009BB243F480630380704700BF83899BB26B
:1014C80001F0FE0123F0FE0319438181704700BF3C
:1014D800838929B923F001031B041B0C83817047FE
:1014E8009BB243F001038381704700BF038829B989
:1014F80023F040031B041B0C038070479BB243F08E
:1015080040030380704700BF038819B9C3F30E0373
:10151800038070476FEA43436FEA53439BB20380EB
:10152800704700BF038829B123F080031B041B0CFC
:10153800038070479BB243F080030380704700BF6D
:10154800B1F5804F838B05D023F480431B041B0C1B
:10155800838370479BB243F480438383704700BF03
:10156800B1F5006F038805D023F400631B041B0C3E
:10157800038070479BB243F400630380704700BF49
:10158800B1F5005F038805D023F400531B041B0C3E
:10159800038070479BB243F400530380704700BF39
:1015A800038829B923F010031B041B0C0380704720
:1015B8009BB243F010030380704700BF018270475D
:1015C800008AC0B2704700BF038829B923F480534A
:1015D8001B041B0C038070479BB243F480530380A9
:1015E800704700BFB1F5006F038805D023F400638E
:1015F8001B041B0C038070479BB243F400630380F9
:10160800704700BF038829B923F020031B041B0C73
:10161800038070479BB243F020030380704700BFEC
:10162800008BC0F307207047838829B923F400632F
:101638001B041B0C838070479BB243F400638380B8
:10164800704700BF838829B923F480531B041B0CFF
:10165800838070479BB243F480538380704700BFF8
:1016680082B0002301930190019B19440191019BD1
:10167800188880B202B0704783889BB21AB923EAEF
:10168800010181807047194381807047828A038BEA
:1016980090B240EA034021F07F4318400B1A5842A9
:1016A80058417047828A038B90B240EA034020F089
:1016B8007F40704782B000230A0F00930193019086
:1016C8000092009B21F07F4153B1019B1433019399
:1016D800019B1B6819420CBF0020012002B0704713
:1016E800019B1833090C0193F2E700BFC94389B283
:1016F800818270478388808A80B208409BB206D076
:1017080001F0E06113EA11410CBF0020012070478D
:10171800C94389B2818270470F4B1048196800226B
:1017280041F0010130B419609A6019680C4D0D4CF4
:1017380021F0A85121F4102119605D60C3F884409C
:10174800C3F88800196821F48021196030BCDA6078
:10175800C3F88C20704700BF0038024000300024D6
:101768001030002400300020024B00221A7018703C
:10177800704700BF0238024082B000230B4A019331
:1017880013689B030CD4019B01330193019BB3F5B0
:10179800A04FF5D1054B1868C0F3404002B0704720
:1017A800019B01330193019BF4E700BF003802401D
:1017B800034B1A6822F0F80242EAC000186070472A
:1017C80000380240014B1860704700BF00004742D4
:1017D800064B002201281A701A7005D0042802D17D
:1017E80005221A70704770471870704770380240A9
:1017F800014B1860704700BF800E474230B4029C0E
:10180800064D40EA04605B080143013B41EA82124D
:1018180042EA03436B6030BC704700BF00380240A7
:10182800014B1860704700BF600047420907034B2F
:1018380041EA8010C3F88400704700BF00380240B6
:10184800014B1860704700BF68004742120742EA20
:101858000161034B41EA8010C3F88800704700BF5C
:1018680000380240014B1860704700BF70004742C3
:10187800014B1860704700BF4C004742034B9A6801
:1018880022F0EC6211430843986070470038024028
:10189800034B9A6822F078421143084398607047D6
:1018A80000380240034B9A6822F003021043986004
:1018B800704700BF00380240024B986800F00C00E7
:1018C800704700BF00380240034B9A6822F0F002CC
:1018D80010439860704700BF00380240034B9A6875
:1018E80022F4E05210439860704700BF003802406D
:1018F800034B9A6822F4604242EAC000986070473D
:10190800003802401F4A936803F00C03042B10B4FC
:101918001BD0082B1CD01C4B03601A491B4A8C682F
:10192800C4F30314145DE34043608C68C4F3822459
:10193800145D23FA04F4846089685DF8044BC1F3EC
:101948004231525CD340C3607047114B0360E4E7F7
:1019580054685168526863024CBF0D4B0A4B01F042
:101968003F01C2F38812B3FBF1F303FB02F3054A0C
:101978005268C2F3014201325200B3FBF2F3036032
:10198800CBE700BF003802400024F400000000202C
:1019980040787D0100F44073B3F5407F09D1084ACF
:1019A800916820F0704321F4F81123F440730B433D
:1019B8009360034B1A6FC0F30B001043186770470E
:1019C80000380240014B1860704700BF3C0E474288
:1019D800014B1860704700BF400E4742014B18602A
:1019E800704700BF5C014742044BD3F88C20013894
:1019F80022F01F020243C3F88C20704700380240CF
:101A0800054BD3F88C20013822F4F85242EA002220
:101A1800C3F88C20704700BF00380240044BD3F84D
:101A28008C2022F440121043C3F88C00704700BF8A
:101A380000380240044BD3F88C2022F440021043B3
:101A4800C3F88C00704700BF00380240044BD3F83D
:101A58008C2022F440321043C3F88C00704700BF3A
:101A680000380240014B1860704700BFE011474240
:101A7800044B1A6B19B922EA000018637047104327
:101A88001863704700380240044B5A6B19B922EAB0
:101A9800000058637047104358637047003802408D
:101AA800044B9A6B19B922EA0000986370471043F7
:101AB8009863704700380240044B1A6C19B922EA3F
:101AC80000001864704710431864704700380240DB
:101AD800044B5A6C19B922EA000058647047104345
:101AE8005864704700380240044B1A6919B922EA51
:101AF80000001861704710431861704700380240B1
:101B0800044B5A6919B922EA00005861704710431A
:101B18005861704700380240044B9A6919B922EAA3
:101B28000000986170471043986170470038024080
:101B3800044B1A6A19B922EA000018627047104368
:101B48001862704700380240044B5A6A19B922EAF1
:101B580000005862704710435862704700380240CE
:101B6800044B1A6D19B922EA000018657047104332
:101B78001865704700380240044B5A6D19B922EABB
:101B88000000586570471043586570470038024098
:101B9800044B9A6D19B922EA000098657047104302
:101BA8009865704700380240044B1A6E19B922EA4A
:101BB80000001866704710431866704700380240E6
:101BC800044B5A6E19B922EA000058667047104350
:101BD8005866704700380240044B1A7819B922EA4F
:101BE8000000187070471043187070470D38024095
:101BF8004309012B0BD0022B094B0CBF1B6F5B6FEA
:101C080000F01F0023FA00F000F001007047044BB9
:101C18001B6800F01F0023FA00F000F00100704775
:101C280000380240024B5A6F42F080725A67704780
:101C380000380240034BDB6818420CBF002001202B
:101C4800704700BF00380240014B1870704700BF52
:101C58000E38024008B52D4B98421BD02C4B9842A9
:101C680024D02C4B98422DD02B4B984236D02B4B5E
:101C780098423FD02A4B984200D008BD4FF400103C
:101C88000121FFF761FF4FF400100021BDE8084073
:101C9800FFF75ABF4FF480500121FFF755FF4FF46B
:101CA80080500021BDE80840FFF74EBF4FF4804048
:101CB8000121FFF73DFF4FF480400021BDE80840B7
:101CC800FFF736BF4FF400400121FFF731FF4FF413
:101CD80000400021BDE80840FFF72ABF4FF400503C
:101CE8000121FFF731FF4FF400500021BDE8084003
:101CF800FFF72ABF4FF480100121FFF725FF4FF4AB
:101D080080100021BDE80840FFF71EBF00300140E9
:101D180000380040003C00400034014000500140C1
:101D2800005401402DE9F007B1F802A0B1F8009085
:101D3800B1F804800F894E898D89CC89B1F806C025
:101D48000A8A03884AEA090141EA080141EA0C01C2
:101D5800394331432943214303F441530B439BB295
:101D68000380838B23F400631B041B0C8383BDE86F
:101D7800F0070282704700BF838B8A6823F47B6375
:101D880023F00F031B042DE9F0031B0C02248383AB
:101D98000484B0F81CC0A2421FFA8CFC52D02B4B12
:101DA8008C889D68002C0CBF4FF001084FF002088A
:101DB8002D0242D4254BDFF89C90D3F88450D3F8F9
:101DC80084605F68CB8807F03F07C5F38815B9FBC7
:101DD800F7F7B3F5007FC6F3027605FB07F5B5FB09
:101DE800F6F516BF4FEA48182D0AB5FBF8F505EBCE
:101DF80085056D00B5FBF2F20532154D92B2A5FBD3
:101E08000262D2085508AE1E02F00102FD2E94BFF0
:101E180045EA022202220F884E888D894CEA070182
:101E280041F4006131432943134389B20C439BB207
:101E380003848483BDE8F00370479D6825F400059A
:101E48009D60B7E78C88CB88E5E700BF0038024083
:101E5800CDCCCCCC40787D010023072202820380C0
:101E680043808380C380038143818381C38170471A
:101E7800002302228260038043808380C3808381A1
:101E8800704700BF038829B923F040031B041B0CCB
:101E9800038070479BB243F040030380704700BF44
:101EA800838B29B923F480631B041B0C838370473D
:101EB8009BB243F480638383704700BF038823F495
:101EC80000631B041B0C038003889BB21943018029
:101ED800704700BFB1F5804F038805D023F48043D5
:101EE8001B041B0C038070479BB243F480430380A0
:101EF800704700BF4FF6FF639942038804D09BB236
:101F080043F480730380704723F480731B041B0C15
:101F180003807047838829B923F004031B041B0C32
:101F2800838070479BB243F004038380704700BFEF
:101F3800838829B923F010031B041B0C8380704786
:101F48009BB243F010038380704700BF838B23F458
:101F58007B6323F00F031B0402221B0C8383028480
:101F6800838B0A8830B44D888C8889899BB22B432F
:101F780043F4006322F40072234392B20B43002A15
:101F88009BB214BF00224FF480721343838330BC8A
:101F9800704700BF808980B2704700BF8181704759
:101FA800038829B923F400531B041B0C03807047D2
:101FB8009BB243F400530380704700BF03889BB271
:101FC80043F4805303807047012914BF008B808A33
:101FD80080B27047008A80B2704700BF83889BB286
:101FE8001AB923EA0101818070471943818070473B
:101FF8000123090903FA01F1838889B29BB21AB94E
:1020080023EA01018180704719438180704700BF2E
:10201800038919420CBF002001207047C94389B2C7
:102028000181704710B48488008901F00F030122F0
:1020380080B202FA03F31840A4B205D009098A4015
:1020480014420CBF002001205DF8044B704700BF0C
:1020580001F00F01012303FA01F1C94389B201819B
:10206800704700BF08B54FF480400121FFF76CFDB1
:102078004FF480400021BDE80840FFF765BD00BF70
:10208800014B1860704700BF00380140014B1860D1
:10209800704700BF2000274201F0FC0303F1804392
:1020A80003F59C3301F0030110B489009C680F22EA
:1020B8008A4024EA02029A609A685DF8044B8840D4
:1020C80002439A60704700BF014B1860704700BF19
:1020D800DC002742014B1860704700BF000427420C
:1020E800024B186AC0F30020704700BF0038014057
:1020F80008B5604B984235D0B0F1804F3CD05E4B6C
:10210800984243D05D4B98424AD05D4B984251D09B
:102118005C4B984258D05C4B98425FD05B4B9842DE
:1021280066D05B4B98426DD05A4B984276D05A4B4A
:1021380098427FD0594B984200F08880584B98427B
:1021480000F08E80574B984200D008BD4FF4807045
:102158000121FFF7EDFC4FF480700021BDE8084035
:10216800FFF7E6BC01200146FFF7EEFC0120002145
:10217800BDE80840FFF7E8BC01200146FFF7D8FC9E
:1021880001200021BDE80840FFF7D2BC0220012150
:10219800FFF7CEFC02200021BDE80840FFF7C8BCCD
:1021A80004200121FFF7C4FC04200021BDE80840F9
:1021B800FFF7BEBC08200121FFF7BAFC0820002168
:1021C800BDE80840FFF7B4BC10200121FFF7B0FCC0
:1021D80010200021BDE80840FFF7AABC20200121FB
:1021E800FFF7A6FC20200021BDE80840FFF7A0BCAF
:1021F80002200121FFF7A8FC02200021BDE80840C9
:10220800FFF7A2BC4FF480300121FFF79DFC4FF48B
:1022180080300021BDE80840FFF796BC4FF400303D
:102228000121FFF791FC4FF400300021BDE8084080
:10223800FFF78ABC4FF480200121FFF785FC4FF49B
:1022480080200021BDE80840FFF77EBC4020012126
:10225800FFF76EFC40200021BDE80840FFF768BC8E
:1022680080200121FFF764FC80200021BDE80840A0
:10227800FFF75EBC00000140000400400008004079
:10228800000C004000100040001400400004014011
:10229800004001400044014000480140001800404F
:1022A800001C004000200040234A0388904270B47C
:1022B8009BB212D002F5806290420ED0B0F1804FEE
:1022C8000BD0A2F58032904207D002F5806290428E
:1022D80003D002F58062904203D14A8823F070034C
:1022E8001343164A90421ED002F5806290421AD0DB
:1022F8000E894D680C8823F4407302F56C429BB23A
:10230800334390420380C562048506D00C4B984243
:1023180003D00123838270BC70478B7A0386012324
:10232800838270BC704703800B884A68C262038549
:102338000123838270BC70470000014000100040F8
:102348000004014000234FF0FF3242600380038104
:1023580043808372704700BF01858282704700BF47
:10236800038823F070031B041B0C1943018070477A
:1023780041627047C1627047406A7047008D80B201
:10238800704700BF038829B923F002031B041B0C04
:10239800038070479BB243F002030380704700BF7D
:1023A800038829B923F004031B041B0C038070471E
:1023B8009BB243F004030380704700BF038829B928
:1023C80023F080031B041B0C038070479BB243F06F
:1023D80080030380704700BF038823F008031B04B1
:1023E8001B0C038003889BB219430180704700BF10
:1023F800038823F440731B041B0C038003889BB2DF
:1024080019430180704700BF038829B923F00103ED
:102418001B041B0C038070479BB243F0010303802D
:10242800704700BFF0B4048CB1F802C08F890E88E1
:102438001B4D24F001042404240C0484028C848899
:10244800038B22F0020223F0730312044CEA0707FD
:102458001B04120CBFB21B0CA84247EA0202A4B22A
:1024680043EA06030AD005F58065A84206D08968C4
:1024780084800383F0BC416302847047B1F80EC0C6
:102488004F8A0D8A8E8822F0080242EA0C023D43E8
:1024980024F4407422F00402ADB232432C43E6E740
:1024A80000000140F0B4048CB1F80CC04F880E88CD
:1024B8001F4D24F010042404240C0484028C848806
:1024C800038B22F02002120423F4E643120C1B04AF
:1024D80042EA0C121B0C42EA071243EA0623A842FE
:1024E80092B2A4B29BB20AD005F58065A84206D084
:1024F800896884800383F0BC816302847047CD8936
:10250800B1F810C08F884E8A22F0800292B242EA57
:10251800051224F440644FF6BF75154044EA8C0454
:1025280045EA071244EA860492B2A4B2E0E700BF83
:1025380000000140F0B4048CB1F80CC04F880E883C
:102548001E4D24F480742404240C0484028C848892
:10255800838B22F400721204120C23F0730342EAF4
:102568000C221B0442EA07221B0CA84292B2A4B216
:1025780043EA06030AD005F58065A84206D08968B3
:1025880084808383F0BCC16302847047CD89B1F82D
:1025980010C08F884E8A22F4006292B242EA052265
:1025A80024F440544FF6FF35154044EA0C1445EA2C
:1025B800072244EA061492B2A4B2E0E70000014000
:1025C800F0B4048CB1F80CC04F880E88164D24F472
:1025D80080542404240C0484028C8488838B22F481
:1025E8000052120423F4E643120C1B0442EA0C3294
:1025F8001B0C42EA073243EA0623A84292B2A4B26D
:102608009BB20AD005F58065A84206D08968848007
:102618008383F0BC0164028470470D8A24F48044EB
:1026280044EA8514A4B2F1E70000014000230380C6
:102638004380838083608381C381038243827047A0
:10264800038C10B401249BB28C4023EA040421F0CB
:102658000803048418307BB10439C1F34E0148F6ED
:10266800FF730C5823400B5012020B585DF8044BB3
:1026780092B21A430A50704749084FF68F7344586C
:102688002340435043585DF8044B1A434250704767
:102698004163704781637047C16370470164704745
:1026A800038B23F070031B041B0C19430183704731
:1026B800038B23F4E0431B041B0C43EA01218BB278
:1026C80003837047838B23F070031B041B0C19438F
:1026D80081837047838B23F4E0431B041B0C43EA7C
:1026E80001218BB283837047038B23F008031B04FB
:1026F8001B0C194301837047038B23F400631B04ED
:102708001B0C43EA01218BB203837047838B23F0B0
:1027180008031B041B0C194381837047838B23F424
:1027280000631B041B0C43EA01218BB283837047AF
:10273800038B23F004031B041B0C1943018370470C
:10274800038B23F480631B041B0C43EA01218BB227
:1027580003837047838B23F004031B041B0C19436A
:1027680081837047838B23F480631B041B0C43EA2B
:1027780001218BB283837047038B23F080031B04F2
:102788001B0C194301837047038BC3F30E0343EA01
:1027980001218BB203837047838B23F080031B04D2
:1027A8001B0C194381837047838BC3F30E0343EAE1
:1027B80001218BB283837047038C23F002031B042F
:1027C8001B0C194301847047038C23F008031B0476
:1027D8001B0C194301847047038C23F020031B044E
:1027E8001B0C43EA01118BB203847047038C23F05E
:1027F80080031B041B0C43EA01118BB2038470474E
:10280800038C23F400731B041B0C43EA01218BB2D5
:1028180003847047038C23F400631B041B0C43EAF6
:1028280001218BB203847047038C23F400531B04EB
:102838001B0C43EA01318BB203847047038C10B43C
:1028480001248C409BB223EA04030384038C5DF8C3
:10285800044B8A4013439BB203847047038C10B423
:1028680004248C409BB223EA04030384038C5DF8A0
:10287800044B8A4013439BB2038470470B88F0B41F
:10288800002B32D0042B58D0082B038C00F0838007
:102898004E888F880D89CC8823F480510904090C4F
:1028A8000184828B038C22F4407223F400531205B6
:1028B8005B04120D5B0C42EA072243EA063342EA44
:1028C80005329BB243F4805392B282830384838B94
:1028D80023F440631B041B0C8383838B9BB243EA62
:1028E80004239BB28383F0BC7047028C8D880E89C9
:1028F8004C88C98822F001021204120C0284028B4F
:10290800038C92B222F0F30223F00A0342EA061281
:102918001B0444F0010492B21B0C23432A43028394
:102928000384038B23F00C031B041B0C0383038B0E
:102938009BB20B430383F0BC7047028C4E888C8893
:102948000F89C98822F010021204120C0284038B2A
:10295800058C23F440731B051B0DADB243EA073207
:1029680025F0A00545EA061392B242EA04229BB27A
:1029780043F0100392B202830384038B23F4406371
:102988001B041B0C0383038B9BB243EA01239BB2FA
:102998000383F0BC704723F480731B041B0C4D8821
:1029A8008C880E89CA880384818B038C89B29BB278
:1029B80021F0F30123F4206341EA061143EA0523D9
:1029C80089B29BB243F48073214381830384838B50
:1029D80023F00C031B041B0C8383838B9BB21343D0
:1029E800838380E700230122828003804380C380A1
:1029F80003817047F0B44D888C880B88B1F808C003
:102A0800028CC988002D14BF00260226012C14BF91
:102A180001270227002B4BD022F010021204120CBF
:102A28000284038B028C23F440731B051B0D92B2A6
:102A380043EA0C3322F0A0029BB242EA051543EAAE
:102A48000424ADB2A4B245F0100504830584038BB9
:102A580023F440631B041B0C0383038B9BB243EAE0
:102A680001239BB20383038C23F001031B041B0C7B
:102A78000384028B038C92B222F0F3029BB242EAE7
:102A88000C1C23F00A0343F001031FFA8CFC1E43BD
:102A98004CEA070707830684038B23F00C031B0407
:102AA8001B0C0383038B9BB219430183F0BC704753
:102AB80022F001021204120C0284038B028C9BB2D6
:102AC80023F0F30322F00A0243EA0C13120445F040
:102AD80001059BB2120C1C432A4304830284028B17
:102AE80022F00C021204120C0283038B9BB20B43DC
:102AF8000383028C22F010021204120C0284038B4E
:102B0800028C23F440731B051B0D92B243EA0C336D
:102B180022F0A0029BB242F0100243EA072742EAE1
:102B2800061607830684038B23F440631B041B0CDF
:102B38000383038B9BB243EA012189B20183F0BC72
:102B4800704700BF406B7047806B7047C06B704721
:102B5800006C7047038B23F00C031B041B0C0383CE
:102B6800038B9BB219430183704700BF038B23F487
:102B780040631B041B0C0383038B9BB243EA0121B4
:102B88008BB20383704700BF838B23F00C031B04B5
:102B98001B0C8383838B9BB219438183704700BFCF
:102BA800838B23F440631B041B0C8383838B9BB2AE
:102BB80043EA01218BB28383704700BFB1F802C09A
:102BC8000B888A89F0B48F88CE880D894C894CEAA5
:102BD80003033B4333432B43234313439BB2A0F8E4
:102BE8004430F0BC704700BF0023038043808380DB
:102BF800C380038143818381704700BFB0F84430AC
:102C080021B9C3F30E03A0F8443070476FEA434379
:102C18006FEA53439BB2A0F844307047838829B9C0
:102C280023F004031B041B0C838070479BB243F002
:102C380004038380704700BF838829B923F0010308
:102C48001B041B0C838070479BB243F001038380F5
:102C5800704700BF83899BB21AB923EA01018181B9
:102C6800704719438181704781827047038A1942EE
:102C78000CBF002001207047C94389B20182704708
:102C8800038A828911EA030092B203D011420CBF71
:102C980000200120704700BFC94389B201827047F4
:102CA8000A43A0F84820704783899BB21AB923EADF
:102CB800010181817047194381817047838829B94F
:102CC80023F008031B041B0C838070479BB243F05E
:102CD80008038380704700BF038923F007031B04A0
:102CE8001B0C0381704700BF038923F070031B048A
:102CF8001B0C1943018103899BB243F0070303812D
:102D0800704700BF602930B4048C24D024F001043B
:102D18002404240C0484058B048CADB225F0F3053F
:102D2800A4B245F0010524F00A0445EA031344F06F
:102D380001049BB2224303830284038923F07003B6
:102D48001B041B0C0B43038103899BB243F007034D
:102D5800038130BC704724F010042404240C04843C
:102D6800048B058C24F440742405ADB2240D25F0A1
:102D7800A00544F4807445F0100544EA033345EA9D
:102D880002129BB292B203830284D6E710B404897C
:102D980042EA0323E4B223439BB219430181038926
:102DA8005DF8044B23F077031B041B0C43F07703F7
:102DB8000381704710B4048942EA0323E4B2234331
:102DC8009BB21943018103895DF8044B9BB243F41C
:102DD80080430381704700BF038923F070031B04FD
:102DE8001B0C194301817047838823F070031B046F
:102DF8001B0C838083889BB219438180704700BF76
:102E0800038923F007031B041B0C038103899BB26E
:102E180019430181704700BF038923F080031B0415
:102E28001B0C038103899BB219430181704700BFC2
:102E380010B40489E4B221430A4342EA03239CB252
:102E480004815DF8044B704770B40589048B068CC7
:102E580024F4407424F00304B6B226F0220625F0C8
:102E68000705240432432D04240C2D0C44F48074EB
:102E780042EA0313294344F001049EB2018104830A
:102E8800068470BC704700BF838829B923F080038B
:102E98001B041B0C838070479BB243F08003838024
:102EA800704700BFA0F85010704700BF40F0BF60E7
:102EB800024B40F40030D860704700BF00ED00E0DE
:102EC800C378F0B463B90378194A5909203103F07B
:102ED8001F03012000FA03F342F82130F0BC7047C9
:102EE800144B4778DA68857803781149D243C2F3DE
:102EF8000222C2F104040F26E4B207FA04F446FAE7
:102F080002F2E4B22A40224303F1604303F561432D
:102F18001201D2B283F800230378012003F01F02C4
:102F28005B0900FA02F241F82320F0BC704700BFA9
:102F380000E100E000ED00E021F0604121F07F01B8
:102F4800014B08439860704700ED00E0044B1A6994
:102F580019B922EA000018617047104318617047D8
:102F680000ED00E0044B1A6804280CBF42F004028C
:102F780022F004021A60704710E000E082B0044BAF
:102F88000190019A1A601A68002AFCD102B07047B1
:102F9800F00500202DE9F041002594B00024B04E42
:102FA800DFF8FC82204688F80040347000F02AFAE6
:102FB800012000F027FA022000F024FA032000F094
:102FC80021FA0BA8FEF79EFC0C9B6422B3FBF2F2DD
:102FD800013AB2F1807F374608D2A24B5A60A24A22
:102FE800F02182F8231007229C601A60002000F06C
:102FF8003BFA012000F038FA022000F035FA0320ED
:1030080000F032FA3B7803F0FF0073BB00F038FAA7
:103018000A20FFF7B3FF012000F032FA0A20FFF779
:10302800ADFF022000F02CFA0A20FFF7A7FF0135B8
:10303800032000F025FAEDB20A20FFF79FFF102DBC
:10304800E0D1002000F01CFA012000F019FA02205B
:1030580000F016FA032000F013FA013D0A20FFF7EA
:103068008DFF15F0FF05ECD1CCE7002000F054FAF5
:103078000128FAD00024042001213470FEF71CFD39
:1030880008200121FEF7F4FC4FF470430226069352
:1030980076488DF81C60032306A98DF81D308DF83D
:1030A8001E408DF81F40FEF745F832466F480C2148
:1030B800FEF7DEF832466D480D21FEF7D9F83246A4
:1030C8006A480E21FEF7D4F8324668480F21FEF709
:1030D800CFF8674B67481A68ADF828404FF47A6311
:1030E800B2FBF3F3013B644AADF822409BB2138074
:1030F80008A940F2CF720992ADF82030FFF7D4F852
:103108005C480121FFF75AF960230126ADF83C30ED
:103118005848ADF848404FF47A730FA91193ADF8A9
:103128003E60FFF77FF9224621465248FFF786FBAB
:1031380050480821FFF7D8FA4E480FA9FFF7B2F90F
:1031480022464C480421FFF779FB4A480821FFF73B
:10315800D3FA48480FA9FFF7EDF922464548082158
:10316800FFF76CFB43480821FFF7D0FA41480FA945
:10317800FFF726FA22463F480C21FFF75FFB3D4840
:103188000821FFF7CBFA3B483146FFF73DF92146C6
:1031980022463848FFF752FB224636480421FFF7FB
:1031A8004DFB224633480821FFF748FB22460C21F5
:1031B8003048FFF743FB40238DF8113007238DF883
:1031C800123004A808238DF813308DF810408DF8BC
:1031D80016408DF814408DF8154001F0E3F81E20D4
:1031E800FFF7CCFE80238DF80E408DF80F40234C5E
:1031F8008DF80C3003A810238DF80D3088F8006086
:1032080001F0FFF8234629210622322000F0F0FEC3
:1032180022781B4B1B4C1A702B2106222346322086
:1032280000F0E6FE184B22781A70184B00931848E5
:10323800184A194B314602F0CFF93B78002BFCD0E5
:10324800002000F069F90128FAD000211348FEF7A0
:10325800DBF80F4803F021F90D4802F0F7FF9DE66F
:10326800BF05002010E000E000ED00E0000C024087
:103278005800002000080040BC050020F00B00208A
:10328800FB050020F4050020FA050020900000202E
:10329800FC0500205C0000201C01002000540040B8
:1032A800BE0500201FB50121002000F0F7F800201E
:1032B80000F0A8F8012000F0A5F8022000F0A2F81C
:1032C800032000F09FF86846FEF71CFB019B642270
:1032D800B3FBF2F2013AB2F1807F09D2314B5A6066
:1032E800314AF02182F8231000229A6007221A60DE
:1032F800002000F011F90128044650D1002000F008
:10330800A7F8204600F0A4F8022000F0A1F8032056
:1033180000F09EF8254B264C1A684FF496732360EC
:1033280052B9002000F0F8F801280FD12368002BCB
:10333800F7D10BE0236823B1002000F0EDF8012855
:10334800F8D0002000F0E8F800B92060206830BB11
:1033580000F08AF8012000F087F8022000F084F8D5
:10336800032000F081F8002000F0D6F80128FAD0F8
:10337800FDF79AFB01F00EFF01F0F0FA01F042FBB5
:1033880001F058FD01F024FE08480021FDF744FD36
:10339800002000F075F80A20FFF7F0FDF8E7FFF7C6
:1033A800F9FD00BF10E000E000ED00E0FCFF0308BD
:1033B800F0050020034B1A6812B11A68013A1A6026
:1033C800704700BFF0050020022108B55820FDF71E
:1033D8003DFC06484FF05531FDF71EFD022000F078
:1033E8004FF80520FFF7CAFDF8E700BFFCFF030808
:1033F80008B5034B1B780BB9FFF7E6FFFEE700BFE4
:10340800BE0500200F4B13B50446012153F82000D8
:10341800FEF72EFB0C4B33F81430009301238DF884
:1034280004308DF8073002238DF80530074B002251
:1034380053F824008DF806206946FDF77BFE02B09C
:1034480010BD00BF3C6A00084C6A0008100000204C
:10345800034B044A53F8203032F810201A8370477F
:10346800100000204C6A0008034B044A53F820302F
:1034780032F810205A837047100000204C6A000868
:10348800044B054953F8203031F810105A694A4066
:103498005A617047100000204C6A000870B5064653
:1034A800012086B00D460146FEF7E2FA4FF480404F
:1034B8000121FEF70DFB06A9012341F8103D154B2C
:1034C800002453F826008DF80C408DF80F40FDF7C6
:1034D80031FE012D1BD120462146FEF7DDFD0823D4
:1034E80004A88DF8153004958DF814408DF8165001
:1034F800FDF72AFA06238DF8043001A80F238DF86A
:1035080005308DF806308DF80750FFF7D9FC06B066
:1035180070BD00BF2000002008B5034B012153F8FF
:103528002000FDF781FE08BD20000020F8B5834C7F
:103538004FF4961305460E46236081484FF4003138
:10354800FEF7B8F828B123685A1E2260002BF4D180
:1035580035E07B480121FDF77DFF4FF48053236060
:1035680077487849FEF792F828B923685A1E2260EE
:10357800002BF5D123E0724894210022FDF786FF45
:103588004FF4805323606E486F49FEF77FF828B9DF
:1035980023685A1E2260002BF5D110E0684829469E
:1035A800FEF70CF84FF48053236065486749FEF72F
:1035B8006DF840B923685A1E2260002BF5D1BDE88A
:1035C800F84001F079BE5E483146FDF7F7FF4FF449
:1035D800961323605A485E49FEF76CF838B9236899
:1035E8005A1E2260002BF5D101F066FEF2E754481E
:1035F8000121FDF73DFF4FF49613236050484FF427
:103608000031FEF757F828B123685A1E2260002BB4
:10361800F4D183E04A480121FDF71CFF4FF48053A1
:10362800236047484749FEF731F828B923685A1EEE
:103638002260002BF5D171E0414894210022FDF76A
:1036480025FF4FF4805323603D483F49FEF71EF89D
:1036580028B923685A1E2260002BF5D15EE038484D
:103668002946FDF7ABFF4FF48053236034483849AF
:10367800FEF720F828B923685A1E2260002BF5D1DE
:103688004CE02F480121FDF7E5FE4FF480532360FD
:103698002B482C49FDF7FAFF28B923685A1E2260E7
:1036A800002BF5D13AE0264894210122FDF7EEFEE1
:1036B8004FF480532360224D26492846FDF7FAFF30
:1036C80028B923685A1E2260002BF4D126E0284628
:1036D8000021FDF7E5FE284601212B8BFDF7C8FEEA
:1036E8004FF48053236016481B49FDF7E3FF28B9C0
:1036F80023685A1E2260002BF5D10FE01048FDF711
:103708005FFF4FF48053074623600D4D2B889B05C0
:1037180007D523685A1E2260002BF6D101F0CCFD94
:1037280008E028460121FDF7BBFE28460B49FDF7B6
:10373800DDFF3846801B18BF0120F8BD2C00002093
:1037480000540040010003008200070080000700C9
:1037580004000010020000104000001000040010D7
:10376800193038B5C4B221462020FFF7DFFE2146C4
:1037780005462120FFF7DAFE284438BD08B5084879
:1037880010210022FDF768FD44F6FF730BB1013BE1
:10379800FCE7034810210122FDF75EFD08BD00BFCC
:1037A800000C0240134B4FF400121A60124A134BDC
:1037B8001A60134BA2F50932AC3A1A60114B002279
:1037C8001A60114B2F221A60104B4FF020521A60CA
:1037D8000F4B4FF010521A600E4B4FF001521A6007
:1037E8000D4B4FF008521A600C4B4FF004521A6000
:1037F800704700BF34000020B86002403C00002041
:103808004C000020C005002044000020400000209B
:10381800480000202400002030000020380000204C
:1038280064292DE9FF4791464FF0640704D8C1EB9E
:10383800012191FBF7F7FFB2082001210024FEF7D0
:1038480017F9022601254FF010087D48CDF80080B1
:1038580069468DF805608DF804508DF806408DF89E
:103868000740FDF767FC07202946FEF701F94FF4EA
:1038780010737448009369468DF804608DF80560EC
:103888008DF806508DF80740FDF754FC6D48062169
:103898000422FDF7EDFC04226A480921FDF7E8FC43
:1038A8004FF4A0536848009369468DF804608DF87A
:1038B80005608DF806408DF80740FDF73BFC63482E
:1038C80004210622FDF7D4FC06225F480A21FDF7F1
:1038D800CFFC5E48CDF800806946FDF72BFC062238
:1038E80059480C21FDF7C4FC8023574800936946CA
:1038F8008DF804608DF805608DF806408DF8074056
:10390800FDF718FC062250480721FDF7B1FCFFF728
:1039180035FF29464FF40010FEF7CEF84C48FDF766
:10392800BBFC4BF6FF73ADF806304FF48063ADF87F
:103938000A304FF48043ADF80C304548454B0093AE
:1039480029464FF03308ADF80440ADF80880FDF77C
:103958005BFD3F486946FDF7D5FC30462946FFF731
:10396800E5FDAF2182460420FFF7E0FD3A4BAF2288
:103978008244812105201A70FFF7D8FD0421824472
:103988000620FFF7D3FD82443846FFF7E9FE3046AC
:103998009E21FFF7CBFD21460AEB00060A20FFF720
:1039A800C5FD042106440E20FFF7C0FD214606444C
:1039B8002720FFF7BBFD0F2106441F20FFF7B6FDA8
:1039C8000A2106441A20FFF7B1FD0A2106441B20EC
:1039D800FFF7ACFD294606444FF40040FEF76CF8AB
:1039E8001E48FEF737F94FF400731C48CDF80890CD
:1039F8006946ADF80240ADF80440ADF80C40ADF8AA
:103A08000030ADF80630FEF7B7F9AEB968468DF864
:103A180000808DF801608DF802608DF80350FFF783
:103A28004FFA0E4871212A46FEF7E2FA0B4829465A
:103A3800FEF736FA304600E0284604B0BDE8F087C5
:103A4800000C02400004024000080240000002404E
:103A580000540040A0860100C4050020003C00403E
:103A68002DE9F843264C274D20682968FCF7C2FE4B
:103A7800A146A846002840D0234E3768002F2DD0F5
:103A8800D9F800001E4CFCF7ADFE0028F8D11F4DF8
:103A98002068D8F80010FCF7CBFE1D492B688B6016
:103AA800206833684FF6FF77BB4294BF0B610F6104
:103AB800FCF70AFE20680121FCF750FE33682A68EB
:103AC8002068BB4238BF1F4602EB4702DF1B2A6053
:103AD80037600121BDE8F843FCF740BE206839464D
:103AE800FCF73CFE20682968FCF7A2FE074B394624
:103AF8001868BDE8F84301F0B5BBBDE8F88300BF1E
:103B08003C0000204000002028000020F80B002086
:103B1800380C002008B507480221FEF779FA38B1B9
:103B280001F0A2FBBDE8084001460248FEF736BA9C
:103B380008BD00BF003C004038B5144C4FF480531A
:103B48000546236012480221FEF762FA28B9236865
:103B58005A1E2260002BF5D110E00D482946FEF7C9
:103B68001DFA4FF48053236009480121FEF750FAEB
:103B780038B923685A1E2260002BF5D1FFF738FCAC
:103B880002E00348FEF706FAC0B238BD5000002034
:103B980000300140012A70B50C46064688BF41F046
:103BA80040040B4808211546FDF754FB2046FFF753
:103BB800C3FF0024A3B29D4204D0305DFFF7BCFFD1
:103BC8000134F7E702480821BDE87040FDF740BB23
:103BD800001002402DE9F04F89B00024064601216B
:103BE8004FF480508DF802408DF80340FDF770FFC8
:103BF80001200146FDF73CFF10200121FDF738FFA9
:103C080010200121534FDFF85091FDF731FF1020AC
:103C18000121FDF72DFF05214FF0200A38460A46FD
:103C28000DEB0A05FDF724FB384606210522FDF7B2
:103C38001FFB052238460721FDF71AFB45F81CAD86
:103C48004FF00208384629468DF808808DF80A405A
:103C58008DF80B808DF80980FDF76CFA80233846C3
:103C680029460193FDF766FA402329463846A7F509
:103C780050470193FDF75EFA3846FDF7EBFF4FF426
:103C88000073ADF816301023ADF818300723ADF8DF
:103C98001C3038464FF4827303A9ADF80E30ADF8E6
:103CA8000C40ADF81040ADF81240ADF81440ADF836
:103CB8001A40FEF737F838460121FEF7E3F80127E6
:103CC8004FF0080B48462946CDF804B08DF8087027
:103CD8008DF80A408DF80980FDF72CFA48465946B8
:103CE800FDF7B6FA4846294601978DF808408DF841
:103CF8000A408DF809808DF80B40FDF71BFA4846FD
:103D08002946CDF80480FDF715FA32789DF802307F
:103D1800134372781343B2781343F27813438DF840
:103D2800023032799DF80330134372791343B27924
:103D38000DEB0800134351463A468DF80330FFF760
:103D480029FF0DF1030023213A46FFF723FF09B0AD
:103D5800BDE8F08F0000024000100240012A70B553
:103D68008CBF41F0C00441F08004064608210B488E
:103D78001546FDF76FFA2046FFF7DEFE0024A3B2D2
:103D88009D4205D00020FFF7D7FE30550134F6E7F5
:103D980002480821BDE87040FDF75ABA00100240F9
:103DA80013B5044621210DF107000122FFF7D6FFC4
:103DB8006278237813439DF8072022F03F021343CB
:103DC8000DF10700212101228DF80730FFF7E2FEEF
:103DD80002B010BD13B50122044624210DF10700DD
:103DE800FFF7BCFF9DF8073023F010031C430DF1CB
:103DF8000700242101228DF80740FFF7CBFE02B00F
:103E080010BD00002DE9F0434FF4001089B00121E6
:103E1800FDF752FE02200121FDF72AFE10200121A4
:103E2800FDF726FE424FDFF8109110200121FDF723
:103E38001FFE10200121FDF71BFE38460621042233
:103E4800FDF716FA08AD042238460921FDF710FAE5
:103E58000024022640233846694645F8203D8DF85F
:103E680004608DF806408DF807608DF80560FDF751
:103E780061F94FF400733846694607F540670093C7
:103E88004FF00408FDF756F938466946CDF800802A
:103E98008DF804408DF806408DF807408DF80560D0
:103EA800FDF748F931464046FEF7F6F808230DEBD2
:103EB8000300CDF808804FF001088DF80D308DF81B
:103EC8000C408DF80E80FCF73FFD08A94BF6FF73F8
:103ED800184AADF816304FF4806341F8102DADF84C
:103EE8001A3048464FF48043ADF81C30ADF8144002
:103EF800ADF81840FDF706FA48464146FDF784FA42
:103F080010233846694600938DF804408DF8064022
:103F18008DF805608DF80740FDF70CF92023384629
:103F280069460093FDF706F909B0BDE8F08300BFC4
:103F380000040240A08601000054004070B5022031
:103F480086B0294C0121FDF793FD02200121FDF7E0
:103F58008FFD204606210422FDF78AF90422204617
:103F68000921FDF785F94023012600930025022346
:103F7800204669468DF804308DF805308DF80750D5
:103F88008DF80660FDF7D6F84FF4007320466946B1
:103F98000093FDF7CFF831464FF40010FDF78CFD84
:103FA8004BF6FF73ADF80E303323ADF810304FF4F5
:103FB8008063ADF80C50ADF8123006AD4FF4804375
:103FC800A4F5D834ADF81430084B45F8103D204618
:103FD800FDF762F920463146FDF716FA20462946D4
:103FE800FDF790F906B070BD00040240A0860100FC
:103FF800F7B51E464FF4204305460F461446009376
:10400800FFF79CFF4FF42043974800930121FDF7E9
:1040180021FA95489549FDF739FB30B9009B5A1E9E
:104028000092002BF5D100201BE14FF420438E486D
:10403800009329460022FDF729FA8B488C49FDF7A1
:1040480025FB48B9009B5A1E0092002BF5D18648E3
:104058008849FDF74BFBD5E783480121FDF7D4F9E3
:1040680081483946FDF7AAFA4FF4204300937E4869
:104078008149FDF70BFB28B9009B5A1E0092002BC3
:10408800F5D1D0E7012C41D177480121FDF7E2F9BC
:1040980075487649FDF7FAFA0028F9D0724829469A
:1040A8000122FDF7F3F94FF4204300936E4873495A
:1040B8006D4CFDF7FFFA48B9009B5A1E0092002B81
:1040C800F4D120466B49FDF711FBDDE720460021BE
:1040D800FDF7E6F972B6238B63489BB20121019381
:1040E800FDF7C6F962B660485F4CFDF7DBFA10F0E1
:1040F800400FF8D02046FDF763FA307023889D05FD
:10410800FCD459480121FDF7CBF944E0022C67D1D2
:1041180055480121FDF79EF9534C54492046FDF7B7
:10412800B5FA0028F8D0204629460122FDF7AEF955
:1041380040F6014323804FF4204300934A484F49F7
:10414800FDF7B8FA484B48B9009A511E0091002A69
:10415800F4D118464749FDF7C9FAD9E772B61B8B5F
:1041680041489BB200210193FDF79AF962B63E4897
:10417800FDF798FA4407FAD572B63B4C0121204660
:10418800FDF776F9238A3370238A737062B6364B4B
:1041980040F201421A80012063E0009B5A1E0092FF
:1041A800002B3FF440AF30483049FDF76FFA002844
:1041B800F3D04FF420432C48009329460122FDF701
:1041C80065F929482E49FDF761FA002843D1009B7B
:1041D8005A1E0092002BF4D123482649FDF786FA8F
:1041E8004FF42043204800930121FDF733F9DAE723
:1041F8001D48FDF757FA4007FAD51B48FDF7E0F9C7
:10420800013CA4B2032C05F8010B03D0164A24B3D1
:10421800032CEDD11448FDF745FA4107FAD51248A9
:104228000021FDF73DF972B60F48FDF7C9F90121E4
:1042380028700D48FDF71CF90B48FDF7C1F96870A7
:1042480062B6AE1C084C2046FDF72CFA4206F9D59A
:10425800238AAB7000243546D8E713889B05FCD425
:104268004FE703B0F0BD00BF005400400100030059
:1042780082000700000402108400070002000010FA
:10428800020003002DE9F8438146884617461D467B
:10429800FFF754FE3D4E3E484FF420430121336062
:1042A800FDF7D8F834463A483A49FDF7EFF938B9F6
:1042B80023685A1E2260002BF5D10020BDE8F88340
:1042C800334849460022FDF7E1F84FF420433360B4
:1042D8002F483149FDF7DAF948B923685A1E226098
:1042E800002BF5D12A482D49FDF700FAD2E74FF403
:1042F8002043274823604146FDF760F924482849B0
:10430800FDF7C4F928B923685A1E2260002BF5D19D
:10431800D3E7012F11D14FF4204323601C4829789B
:10432800FDF74CF91A481E49FDF7B0F9B0B92368F2
:104338005A1E2260002BF5D1BFE715482978FDF7F2
:104348003DF9013F15FA87F7BD420ED14FF42043DE
:1043580023600F481249FDF799F988B10C480121EB
:10436800FDF786F80120BDE8F8830948FDF79AF9BA
:104378004307FAD5064815F8011FFDF71FF9E3E7CB
:1043880023685A1E2260002BE3D196E754000020D0
:1043980000540040010003008200070000040210DE
:1043A8008400070013B5044600238DF806308DF805
:1043B8000730FFF727FD22789DF80630134362780F
:1043C8001343A27813438DF8063022799DF80730FD
:1043D800134362791343A2791343E27813438DF8A8
:1043E800073020210DF1060301223220FFF74AFF92
:1043F800232101220DF107033220FFF743FF02B00A
:1044080010BD13B504460DF1070321210122322006
:10441800FFF7EEFD627823781343A2781343E2781E
:1044280013439DF8072002F00C0213438DF8073060
:10443800212101220DF107033220FFF723FF02B0EB
:1044480010BD7047FEE7FEE7FEE7FEE770477047DE
:1044580070470000F8B5FEF7ADFF614B1B781BB93C
:10446800BDE8F840FEF7A6BF5E4B5F4D00225A70CC
:104478009A7095F90020901C01DA072202E0022ABE
:1044880001DDF9225A70594E96F90020911C01DA83
:10449800072202E0022A01DDF9229A705B7813B93B
:1044A800504B9B7823B152484E49042200F088FFB4
:1044B800504B1A780132D2B20A2A1A701F4640F0BD
:1044C8008E800024214622464B4834702C70FEF71B
:1044D800B5F9224648480421FEF7B0F92246464875
:1044E8000821FEF7ABF922464348444C0C21FEF75D
:1044F800A5F9292106223D4B3220FFF779FD404BD3
:1045080032781B78D31A33702B210622364B32208F
:10451800FFF76EFD3B4B2A781B78D21AD2B253B202
:104528002A7096F90020002BB8BF5B4282EAE2713C
:10453800A1EBE271DBB2C9B28B4238BF0B462370E4
:104548002378002B49D002320CDA2B480C210122A7
:10455800FEF774F9237828484FF47A7191FBF3F148
:10456800FEF79CF896F90030022B0CDD2248042156
:104578000122FEF763F923781F484FF47A7191FB03
:10458800F3F1FEF787F895F90030022B0CDD1A4895
:1045980000210122FEF752F9237817484FF47A7167
:1045A80091FBF3F1FEF774F895F9003002330CDA59
:1045B800114808210122FEF741F923780E484FF4EB
:1045C8007A7191FBF3F1FEF767F823780A4840F215
:1045D800CF7191FBF3F1FDF7CDFE00233B70F8BDE1
:1045E800BE050020C6050020F4050020F00B0020C1
:1045F800FC050020CA05002000080040C505002071
:10460800FB050020FA050020024B01201870FCF77A
:1046180005BA00BFBF05002010B5094CA37A4BB1FD
:10462800084B1A6922F006021A6100F013F82046B6
:1046380001F0FCFD4FF48020BDE81040FCF7EEB916
:10464800FC05002000ED00E0014801F02FBF00BF8D
:10465800FC0500203D4BD3F8882042F47002C3F8D3
:1046680088203B4B1A6842F001021A6000229A60C7
:10467800196821F0847121F4803119603549596035
:10468800196882B021F480211960DA6000920192E1
:104698001A6842F480321A602D4B1A6802F400320C
:1046A8000192009A01320092019A1AB9009AB2F561
:1046B800A04FF1D11B6813F4003318BF01230193F5
:1046C800019B012B224B04BF234A5A601A6C42F00B
:1046D80080521A64214A116821F4404111609A6895
:1046E8009A609A689A609A6842F480529A601A6846
:1046F80042F080721A60164B1A689201FBD5184A6C
:1047080040F2027111609A6822F003029A609A6876
:1047180042F002029A600E4B9A6802F00C02082AD4
:10472800F9D19A6822F400029A600E4AC3F88420EC
:104738001A6842F080621A60054B1B681B01FBD5A2
:10474800024B4FF000629A6002B0704700ED00E043
:10475800003802401030002408544107007000401F
:10476800003C024080400030F7B50120294D014649
:10477800FDF77EF94FF4D853002600930327022350
:10478800284669468DF804308DF805708DF8066066
:104798008DF80760FCF7CEFC284608210A22FCF7B2
:1047A80067FD284609210A22FCF762FD28460B21ED
:1047B8000A22FCF75DFD28460A220C21FCF758FD69
:1047C80001244FF480632846694600938DF806401B
:1047D8008DF807408DF80570FCF7ACFC0A210A46F5
:1047E8002846FCF745FD21464FF48040FDF770F957
:1047F80021468020FDF748F921464FF08050FDF70B
:1048080097F930462146FEF749FE2046FCF706F99F
:1048180003B0F0BD0000024007B54FF4C060FEF7DA
:1048280045FB43238DF804300322012301A88DF8AA
:1048380005308DF806208DF80730FEF741FB03B0F0
:104848005DF804FB782358430722B0FBF2F00023FD
:1048580001338342FCD970474FF47A735843FFF70A
:10486800F1BF000012230B80004870477C00002035
:1048780004230B80004870477800002010B5044CD2
:1048880004480A46214601F0EBF8204610BD00BF57
:10489800D00C0020546A000808B50A4608B9044834
:1048A80000E00448044901F0DBF8034808BD00BFF4
:1048B800676A00087B6A0008D00C002008B50A4621
:1048C80008B9044800E00448044901F0C9F803485D
:1048D80008BD00BF8F6A00089C6A0008D00C002041
:1048E80010B5044C04480A46214601F0B9F82046A0
:1048F80010BD00BFD00C0020A96A000810B5044CF8
:1049080004480A46214601F0ABF8204610BD00BF16
:10491800D00C0020B46A0008704770477047704791
:10492800704770470A4B1A681823B2FBF3F2013A32
:10493800B2F1807F0AD2074B5A60074AF02182F809
:10494800231000229A6007221A607047FEE700BF12
:104958005800002010E000E000ED00E030B585B020
:10496800A5238DF8003008238DF80830072300248C
:104978008DF80A301025302302A88DF80B308DF8F9
:1049880009408DF80C408DF80D408DF80E50FFF75A
:1049980021F901A88DF804408DF80540FFF700FAC9
:1049A8002846FFF717FA684620210122FFF7F2F898
:1049B800202101220DF10300FFF7D0F91E20FEF798
:1049C800DDFA0DF103000F210122FFF7C7F99DF869
:1049D8000330D42B04D0FEF7F7FCFEF7F5FC0FE00C
:1049E8002046FEF735FD0020FEF796FD0028FAD098
:1049F8000020FEF791FD0128FAD00020FEF734FDD3
:104A080005B030BD2DE9F3410D200121FDF730F847
:104A18000024012520270226B248009769468DF810
:104A280004508DF806408DF807408DF80560FCF7B6
:104A380081FB3946AB48FCF70DFCAB48009569464D
:104A48004FF400778DF804508DF806408DF8074034
:104A58008DF80560FCF76EFBA448009769468DF851
:104A680004408DF806408DF807408DF80560FCF786
:104A780061FB29469C48FCF7EDFB2846FEF77EFAC9
:104A88009A483946FCF7D0FB08B9FEF79DFC02238B
:104A980069464FF480658DF804408DF806409348C8
:104AA8008DF80530012400958DF80740FCF742FB8E
:104AB8002046FEF763FA8D482946FCF7B5FB08B98E
:104AC800FEF782FC88480121FCF7C2FB01244FF461
:104AD800C053002502278548009369464FF40076A5
:104AE8008DF804508DF806508DF807408DF8057044
:104AF800FCF720FB7D48009669468DF804408DF848
:104B080006508DF807408DF80570FCF713FB314609
:104B18007648FCF79FFB2046FEF730FA73484FF4BF
:104B28000061FCF781FB10B9FEF74EFC06E06F4808
:104B38004FF48051FCF778FB0028F5D001250024BC
:104B48004FF480574FF0020868488DF807506946BF
:104B58004FF4006600978DF804408DF806408DF8F4
:104B68000580FCF7E7FA61488DF8045069468DF82E
:104B7800075000968DF806408DF80580FCF7DAFAA4
:104B880031465A48FCF766FB2846FEF7F7F95748BE
:104B98003946FCF749FB254608B9FEF715FC012400
:104BA80002275248009669468DF804508DF8065041
:104BB8004FF480568DF807408DF80570FCF7BAFA67
:104BC8004A488DF80650694600968DF804408DF8DD
:104BD80007408DF80570FCF7ADFA31464348FCF7FD
:104BE80039FB2046FEF7CAF940484FF40061FCF74C
:104BF8001BFB254608B9FEF7E7FB00244FF40077B6
:104C080002263A48009769468DF804508DF8064008
:104C18008DF807408DF80560FCF78CFA3946334863
:104C2800FCF716FB2046FEF713FC4FF4F0532F4811
:104C3800009369468DF804408DF806408DF80750BA
:104C48008DF80560FCF776FA0020FEF765FC002871
:104C5800FAD00020FEF760FC0028FAD1FEF704FC29
:104C680022484FF40071FCF7F5FA1E482021FCF7A2
:104C7800EFFA1E484FF48061FCF7D6FA08B1FEF748
:104C8800A3FB4FF4C0530026022518480093694639
:104C980001244FF400778DF804608DF806608DF8D4
:104CA80007508DF80550FCF745FA104800976946FB
:104CB8008DF804408DF806608DF807408DF8055092
:104CC800FCF738FA39460948FCF7C2FA2046FEF7DD
:104CD80055F906484FF40061FCF7A6FA40B9FEF70B
:104CE80073FB0CE0000C0240000802400000024088
:104CF8004F484FF48051FCF797FA0028EFD04FF453
:104D08009053002602254A480093694601244FF42F
:104D180000678DF804608DF806608DF807508DF8EF
:104D28000550FCF707FA4248009769468DF8044099
:104D38008DF806608DF807408DF80550FCF7FAF9F4
:104D480039463B48FCF784FA2046FEF717F93848FD
:104D58004FF40071FCF768FA10B9FEF735FB06E06E
:104D680033484FF48051FCF75FFA0028F5D04FF430
:104D78002063002602252E480093694601244FF43B
:104D880080578DF804608DF806608DF807508DF80F
:104D98000550FCF7CFF92648009769468DF804407E
:104DA8008DF806608DF807408DF80550FCF7C2F9BC
:104DB80039461F48FCF74CFA2046FEF7DFF81C4836
:104DC8004FF40071FCF730FA10B9FEF7FDFA06E06F
:104DD80017484FF40061FCF727FA0028F5D00025A2
:104DE80002244FF4C0536946114800934FF40076EB
:104DF8008DF804508DF806508DF807408DF8054061
:104E0800FCF798F90123694609488DF804308DF8B4
:104E1800073000968DF806508DF80540FCF78AF9A2
:104E280003483146FCF716FA02B0BDE8F08100BF2E
:104E3800000002402DE9F7434FF480700121FCF790
:104E480047FEFEF7AFFC022057214BF68032FEF7F3
:104E5800E7FC08B1FEF7B8FA5448554DDFF86891F9
:104E6800DFF868814FF44033002443604FF47063E7
:104E7800C36004608460FBF7F1F92846FBF7E4F9A6
:104E8800022601274FF0007329464A482B602F71EC
:104E98002E756C71AC602C61FBF7AAF9032504230D
:104EA8004548009369468DF805608DF804508DF8E3
:104EB8000740FCF73FF908233F4800936946FCF791
:104EC80039F931463B48A9F80040A8F80040FBF7FB
:104ED800EDFA31463A462B463648FBF7B9FA3246E0
:104EE8002B4629463348FBF7B3FA39463148FBF7D6
:104EF800CFF9324B4FF4FA721A604D4646461F46B8
:104F08003C68002C3DD02B482D4CFBF7EFFA1421C0
:104F18002848FBF709FB182120802648FBF704FBEB
:104F2800284B1880228892B2962A0DD91A8892B2F4
:104F3800092A09D82988244A89B2B1F5FA7F03D009
:104F48001188013189B21180228892B2092A0DD8BC
:104F58001B889BB2962B09D932881C4B92B2B2F5AA
:104F6800FA7F03D01A88013292B21A802B889BB23A
:104F7800B3F5FA7FC4D133889BB2B3F5FA7FBFD1BA
:104F880001240C480021FBF783F90CB9FEF71CFA41
:104F98000020FEF75DFA0020FEF7BEFA0028FAD0DE
:104FA8000020FEF761FA03B0BDE8F083A00C0020F2
:104FB800780C00200020014000000240F00500208D
:104FC800740C0020C80C0020D2050020D005002059
:104FD80070B54FF4804086B00121FCF76DFD0620C6
:104FE8000121FCF745FD06AD0223002401268DF8BA
:104FF80004302D488DF806404FF48063694645F823
:10500800183D8DF807608DF80560FCF793F80522C8
:105018002548264D0A21FCF72BF90823244800933C
:105028006946FCF787F8052203212148FCF720F997
:105038002048FCF70FFE4FF47A4304931023ADF891
:105048000A301C48ADF80C404FF4407302A9ADF883
:105058000830ADF81440ADF80E40FCF78DFE154849
:105068003146FCF71DFF0A20FDF788FF4FF4FA735D
:105078002B602B68A3B10F480121FCF7C9FF10B9B9
:105088002B68002BF7D10B48FCF784FF4FF6FF7312
:10509800984204BF0134E4B21D2CEAD91E2C01D079
:1050A800FEF792F906B070BD00040240F00500203A
:1050B800000802400038004070B586B02321022263
:1050C80001AB064604AC3220FEF792FF28210622E7
:1050D80023463220FEF78CFF9DF805309DF804101A
:1050E80003F0400303F0FF02002B0CBF1023402302
:1050F80011F0400F02AD00D0BAB10022A11891F909
:105108000100A15C01EB002191FBF3F1A9520232ED
:10511800062AF3D101AB322023210222FEF768FFD1
:105128009DF805305B0620D40BE0A118A0564978FD
:1051380001EB002191FBF3F1A9520232062AF4D1C6
:10514800E8E79DF8043003F03003202B0DD0302B16
:1051580008D0102BF7EE007AB6EE007A08BFF0EE12
:10516800477A04E0DFED0A7A01E0F5EE007A30468E
:105178000023EA5E07EE102AB8EEC77A023387EEFC
:10518800277A062BA0EC017AF3D106B070BD00BFD8
:105198009FCDAA3D30B585B040238DF8093007234F
:1051A8008DF80A30082300240DEB03008DF80B302E
:1051B8008DF808408DF80E408DF80C408DF80D40A4
:1051C800FFF7F0F880238DF8043001A810238DF83C
:1051D80005308DF806408DF80740FFF712F91E20BC
:1051E800FDF7CCFE1D4B4FF4FA721A601D462B6872
:1051F800F3B11B4C2046FFF75FFF94ED007AD4ED26
:10520800027ABDEEC77A17EE103A5BB2002BB8BF30
:105218005B42DBB2052B0ED8FDEEE77A17EE903A2B
:105228005BB2002BB8BF5B42DBB2052B03D8DEE7CD
:10523800FEF7CAF80FE00020FEF70AF90020FEF793
:105248006BF90028FAD00020FEF766F90128FAD099
:105258000020FEF709F905B030BD00BFF0050020B9
:10526800B00C0020704700000F4A1048118830B574
:1052780061B90F4B1D886C1CA4B2302C1C8008BF70
:105288001980012330F81500138030BD094B1C88A4
:10529800611C89B2198030294FF0000130F81400E0
:1052A80008BF1980118030BDCE050020C26A0008F1
:1052B800CC050020AC000020FEE7000022230B8074
:1052C80000487047F800002008B5812101F0D1F8A6
:1052D800002008BD10B50C7814F06004034622D0F5
:1052E800202C46D14A78023A092A17D8DFE802F07A
:1052F80010081616161616160B058A781E4B05E0AA
:1053080018461D4906E04A881C4B120A1A6030E00C
:105318001A491846012200F08EF92AE0184600F0D2
:10532800EDF9022426E04A780A2A19D00B2A1CD063
:10533800062A1FD14A88120A222A05D1CA8810498A
:105348004A2A28BF4A2209E0212A05D1CA880D49DC
:10535800092A28BF092201E021462246184601E011
:105368000949012200F067F904E0074B8A781A60BE
:1053780000E00024204610BDD4050020D8050020F8
:10538800AE0000200A010020DC05002010B58121B4
:10539800044600F0EEFF2046012100F0EAFF00205D
:1053A80010BD10B5812104460422032300F0C0FF7C
:1053B800204601210422032300F0BAFF002010BD7B
:1053C80010B5134690F81221032A0C4603D1812107
:1053D800224601F001F8002010BD10B5D0F8E835DC
:1053E80004461B699847032384F81231002010BD36
:1053F80008B590F8123180F81331042380F812317F
:10540800D0F8E835DB689847002008BD08B5D0F823
:10541800E435DB6903B19847002008BD08B5D0F82A
:10542800E4351B6A9847002008BD08B5D0F8E43574
:105438005B6A9847002008BD002110B50B4604465A
:10544800402200F075FF802140222046002300F012
:105458006FFF012384F81231D4F8E835A0785B682F
:105468009847002010BD13B56946044600F024F99A
:105478009DF8001001F01F03012B0CD006D3022B5E
:105488000ED12046694600F08BFA0EE020466946A8
:1054980000F042F909E02046694600F069FA04E0A4
:1054A800204601F0800100F0B0FF002002B010BDDE
:1054B80070B50446002947D190F81131022B37D135
:1054C800D0F83821D0F824319A4211D9C178D21AAB
:1054D8000129C0F8382104D1D0F828110B44C0F8AC
:1054E80028312046D4F8281192B200F0B5F81FE010
:1054F800D0F83C51B5FBF3F603FB16565EB99D4256
:1055080009D3D0F840319D4205D2324600F0A4F8C4
:10551800C4F840610CE0D4F8E435DB682BB194F8AA
:105528001221032A01D120469847204600F0B5F8F9
:1055380094F81631012B10D1094A236912685A6070
:10554800002384F8163108E0D0F8E4355B6923B10C
:1055580090F81221032A00D19847002070BD00BF9F
:10556800CC0C002010B5044659BB90F81131032B20
:1055780030D1D0F89023D0F87C339A4214D9C1782E
:10558800D21A0129C0F8902304D1D0F88013194405
:10559800C0F880139A4228BF1A462046D4F88013D0
:1055A80092B200F062F815E0D0F8E4351B6923B137
:1055B80090F81221032A00D19847204600F05EF89F
:1055C80008E0D0F8E4359B6923B190F81221032A4A
:1055D80000D19847002010BD2DE9F0410446164639
:1055E80098460D46069FFFF7BFF820462946C4F89F
:1055F800E485C4F8E875C4F8EC6500F04BFED4F80F
:10560800E8351B6898472046BDE8F041FFF704B924
:10561800D0F8E43510B504461B689847D4F8E83547
:105628009B689847002010BD08B5D0F8E4355B6842
:105638009847002008BD38B504460D46C4F83C21FB
:10564800C4F838211346022280F8112100212A4685
:1056580000F0C2FE002038BD10B50C4613460021EC
:10566800224600F0B9FE002010BD10B50C461346C6
:105678000021224600F095FE002010BD10B5002143
:10568800042304460A4680F811310B4600F0A4FEB4
:10569800204600F0ACFD002010BD10B50021052308
:1056A80004460A4680F811310B4600F07AFE20467F
:1056B80000F09DFD002010BD90F8CC350B7090F8DF
:1056C800CD354B7090F8CF2590F8CE3503EB0223FB
:1056D8004B8090F8D12590F8D03503EB02238B80CE
:1056E80090F8D32590F8D23503EB02239BB2CB80F8
:1056F800C0F84031012380F81131704710B580217E
:10570800044600F082FE2046002100F07EFE20467E
:10571800BDE8104000F06BBD73B54B7804460D46EC
:10572800092B00F21681DFE813F0C700020114010B
:10573800DA0014016E000A001401B9008D006B88AC
:105748001A0A013A062A00F20481DFE812F007007B
:105758001A0027000201020102010201D0F8EC350B
:1057680080781B680DF106019847EB88402B0146AD
:1057780003D094F81231012B35D10823ADF8063047
:1057880031E0D0F8E43580789B6A0DF1060198473E
:10579800022343700146C4F8F00524E0DBB2052B70
:1057A80000F2D780DFE803F003070B0F1317D0F8D8
:1057B800EC355B6812E0D0F8EC359B680EE0D0F869
:1057C800EC35DB680AE0D0F8EC351B6906E0D0F868
:1057D800EC355B6902E0D0F8EC359B690DF1060108
:1057E800A07898470146BDF80630002B00F0B58038
:1057F800EA88002A00F0B1809A4228BF1A46ADF81C
:105808000620204668E0AB88002B40F0A280EB8899
:10581800002B40F09E8090F81231AE78032B06F0F2
:105828007F0600F0968080F81461314600F02DFE66
:105838002046FFF723FF0EB1022300E0012384F87E
:1058480012318AE0A978464E0129317000F2818030
:1058580090F81231022B02D0032B09D079E00029ED
:1058680061D00121032380F8101180F8123111E072
:1058780039B9022380F8123180F81011FFF7D4FEED
:1058880051E090F8101101294DD0FFF7CDFE317885
:1058980084F810112046FFF7BBFE44E0EA88012A8D
:1058A80057D190F81231022B04D0032B51D100F5B7
:1058B800887111E02B490FE090F81231023B012B5F
:1058C80047D8294B00221A60D0F818210AB10222C1
:1058D8001A60254920460222FFF7ADFE3DE06B889D
:1058E800012B2DD0022B38D1AA8812F0FF0F34D10A
:1058F8000369120A013A5B68042A0FD8DFE802F04C
:10590800030507090B00012206E0022204E0032236
:1059180002E0042200E0052262F30613134A136032
:10592800012384F816312046FFF7A8FE15E090F809
:105938001231023B012B0CD86B88012B0DD10023AF
:10594800C4F81831D4F8E43520469B6829469847AE
:10595800E9E720462946FFF7D1FE002002B070BDD6
:10596800EC050020E8050020E0050020CC0C002014
:1059780038B590F81231032B04460D460CD10B793B
:10598800012B09D8D0F8E4359B689847EB882BB9E8
:105998002046FFF773FE01E0FFF7B0FE002038BD98
:1059A80070B54E788A88012E04460D46D3B210D0C1
:1059B80027D3032E50D190F81221022A28D0032A87
:1059C80048D14A889AB95E0611D0194600F01DFDE3
:1059D8000DE090F81221022A1AD0032A3AD14A88F7
:1059E800002A39D1590608D0194600F028FDD4F804
:1059F800E43520469B68294698472046FFF73EFE37
:105A08002AE090F81251022D02D0032D06D021E091
:105A18005A0621D0194600F0F8FC1DE012F0800F5C
:105A28004FF028010D4A10D003F07F0301FB03015A
:105A380091F81E310BB1012300E0002313602046CA
:105A480006490222FFF7F7FD06E001FB030393F87E
:105A58007633EFE7FFF752FE002070BDE405002023
:105A680030B5D0B10023DCB20133C51815F8015C9C
:105A7800002DF8D1631C5B0013800B7003234B705F
:105A88000138022310F8012F3AB15C1CE4B2CA5461
:105A980002330022DBB20A55F4E730BD37B50023E4
:105AA800104C019305460320FEF7CCFE2B68013C01
:105AB8001A69019213D0019A002AF4DA019A42F085
:105AC80001020192019A1A61064A19690191013A83
