:020000040800F2
:10000000FFFF0020DD6800080D3400080F340008F1
:1000100011340008133400081534000800000000F3
:10002000000000000000000000000000173400087D
:1000300019340008000000001B3400081D340008BB
:100040002969000829690008296900082969000848
:100050002969000829690008D135000829690008C4
:100060002969000829690008296900082969000828
:100070002969000829690008296900082969000818
:1000800029690008296900082969000800000000A2
:1000900000000000000000000000000029690008C6
:1000A00029690008296900082969000829690008E8
:1000B00029690008296900082969000829690008D8
:1000C00029690008296900082969000829690008C8
:1000D0002969000829690008296900080000000052
:1000E0002969000829690008E135000800000000BE
:1000F000000000000000000000000000E1480008CF
:1001000000000000296900082969000895490008D5
:1001100000000000000000000000000000000000DF
:100120002969000829690008296900082969000867
:100130002969000800000000000000000000000025
:100140000000000000000000000000001136000860
:100150002969000829690008296900082969000837
:10016000296900082969000800000000000000005B
:10017000000000000000000000000000000000007F
:080180000000000029690008DD
:1001880010B5054C237833B9044B13B10448AFF3C9
:1001980000800123237010BDA0050020000000008E
:1001A800246A000808B5064B1BB106480649AFF398
:1001B80000800648036813B1054B03B1984708BD92
:1001C80000000000246A0008A4050020A005002003
:1001D8000000000008B54FF48070012101F0B4FC64
:1001E8004FF480700021BDE8084001F0ADBC00BFAD
:1001F8004268D1F80CC0134B2DE9F00122F040728F
:100208000C6891F804800F698E684D7922F4807229
:10021800224342EA0822426084684CEA07023243D9
:100228002340134343EA450383600B7DC26A013BC5
:10023800DBB222F4700242EA0353C362BDE8F00164
:10024800704700BFFDF7FFC000230122027503605D
:10025800037143718360C3600361704770B490E8B1
:100268004200064A8568C468054B506831432943F3
:10027800214303400B43536070BC70470023014087
:10028800E030FCFF0023036043608360C360704775
:10029800836819B923F001038360704743F00103B1
:1002A80083607047436823F4400323F400731943C1
:1002B8004160704741628262704700BF436823F023
:1002C8001F03194341607047054B5A6818B922F457
:1002D80000025A60704742F400025A60704700BF3B
:1002E80000230140054B5A6818B922F480025A606D
:1002F800704742F480025A60704700BF00230140F3
:10030800092970B41ED9A1F10A0404EB4404C56894
:100318000726A64003FA04F425EA06032343062A1F
:10032800C3601CD90C2A28D90D3AC46A02EB820290
:100338001F23934024EA030301FA02F21A43C2621C
:1003480070BC704701EB410405690726A64003FA13
:1003580004F425EA06032343062A0361E2D8013A96
:10036800446B02EB82021F23934024EA030301FA41
:1003780002F21A43426370BC7047073A046B02EBFF
:1003880082021F23934024EA030301FA02F21A436C
:10039800026370BC704700BF836843F0804383608A
:1003A800704700BF8068C0F380707047836819B9D0
:1003B80023F480638360704743F4806383607047ED
:1003C800836819B923F002038360704743F002037E
:1003D800836070474368013923F4604343EA41313D
:1003E80041607047436819B923F40063436070475C
:1003F80043F4006343607047C06C80B2704700BF2D
:10040800014B1868704700BF08230140836819B979
:1004180023F480738360704743F48073836070476C
:10042800836819B923F400738360704743F4007339
:1004380083607047054B5A6818B922F400525A6015
:10044800704742F400525A60704700BF00230140D1
:10045800092970B41BD801EB410405690726A64099
:1004680003FA04F425EA060323430361836B02328B
:10047800C3F30154121BD2B202EB82021F24944030
:1004880023EA040391400B43836370BC7047A1F1D6
:100498000A0404EB4404C5680726A64003FA04F4DA
:1004A80025EA06032343C360E0E700BF836B0139F5
:1004B80023F4401343EA01518163704782B000235B
:1004C80001930190019B19440191019B1A6002B0AC
:1004D800704700BF836823F4702319438160704715
:1004E800836823F44013194381607047836843F499
:1004F80080038360704700BF8068C0F380507047F6
:10050800436819B923F480634360704743F48063F8
:1005180043607047436819B923F4805343607047B8
:1005280043F480534360704782B0002301930190E5
:10053800019B283319440191019B186880B202B0CD
:10054800704700BF0123C9B203FA01F143681AB921
:1005580023EA01014160704719434160704700BFB9
:10056800036819420CBF002001207047C94301608D
:10057800704700BF4368006810EA112007D0C9B26D
:10058800012202FA01F119420CBF00200120704734
:100598006FEA11210160704710B4374A04680023DC
:1005A80024F00104212190420460036043608360C9
:1005B800C360036141614DD0304B984235D0304B18
:1005C800984239D02F4B98423DD02F4B984247D074
:1005D8002E4B984248D02E4B98421DD02D4B984216
:1005E8001ED02D4B984243D02C4B98421DD02C4BFB
:1005F800984221D02B4B984225D02B4B98422FD094
:100608002A4B984230D02A4B984205D0294B984221
:1006180006D05DF8044B7047274A43F8942CF8E756
:100628004FF03D5243F8AC2CF3E74FF4746243F8B3
:10063800202C5DF8044B70474FF4741243F8382CA3
:100648005DF8044B70474FF0746243F8502C5DF826
:10065800044B7047194B5DF8044B3D229A60704774
:10066800174A43F8642CD4E7164A43F87C2CD0E7A1
:100678003D2243F8082CCCE7106002402860024075
:10068800406002405860024070600240886002404A
:10069800A0600240B8600240106402402864024032
:1006A800406402405864024070640240886402401A
:1006B800A0640240B864024000003D20006002408F
:1006C8003D000020400F0020CA680B68D0F800C029
:1006D8002DE9F0074F698E69CD690C6AD1F834901D
:1006E800D1F8388042EA030A4AEA07073E434B6AD0
:1006F8004F6835432C4344EA03028B6A0D4ECC6A9B
:100708000D691A4342EA090949EA08080CEA06068B
:1007180048EA06060B6B896806604269234322F0A3
:1007280007021343436145608760C160BDE8F00775
:10073800704700BF3F801CF0002303604360836064
:10074800C360036143618361C3610362436283627F
:10075800C362036343638363704700BF036819B9C7
:1007680023F001030360704743F0010303607047FF
:10077800036819B923F400430360704743F4004346
:1007880003607047036819B923F0200303607047BA
:1007980043F020030360704741607047406880B2AF
:1007A800704700BF036822B923F400230360016186
:1007B800704743F40023036001617047036819B967
:1007C80023F480230360704743F480230360704759
:1007D8000AB9C16070470161704700BF0068C0F383
:1007E800C0407047006800F001007047406900F0A1
:1007F800380070470B4B0C4A10B40C4CA0428CBF0D
:10080800104618468B004CBF436803685DF8044BDC
:1008180021F0F02121F0821119420CBF00200120A3
:10082800704700BF00600240006402400F6402404D
:1008380010B4094A094C0A4BA0428CBF104618460E
:1008480011F0005F21F0F02121F0821114BFC16086
:1008580081605DF8044B7047006402400F640240F9
:10086800006002400B060CD54369AAB143F080032F
:10087800802943610FD0036801F01E01194301600C
:100888007047802907D0002AF5D1036801F01E01BE
:1008980023EA01010160704723F080038029436146
:1008A800F3D1704770B4114A114D124C21F0F02366
:1008B80023F0C316A84288BF224696B1046804F004
:1008C8001E0404EAD12489004CBF5268126823F040
:1008D800821313EA020002D0201C18BF012070BC4A
:1008E8007047446904F08004EDE700BF00600240EF
:1008F8000F6402400064024010B4094A094C0A4BD4
:10090800A0428CBF1046184611F0005F21F0F0217C
:1009180021F0821114BFC16081605DF8044B7047FB
:10092800006402400F64024000600240044B054925
:1009380000221A605A609A60DA605961704700BFF5
:10094800003C0140FFFF7F00837970B42BB31D4B3F
:1009580001681E6802794579CC4326401E605E68AE
:1009680002F1804202F59E3234405C6014682143F3
:10097800116002689868D14308409860D868102DC3
:1009880001EA0001D96014D005F1804303F59E33D4
:1009980070BC19680A431A6070470379016803F14B
:1009A800804303F59E3370BC1A6822EA01021A607C
:1009B8007047996811439960D9680A43DA6070BC36
:1009C800704700BF003C014000230C2242710360C5
:1009D80003718371704700BF024B1A691043186195
:1009E800704700BF003C0140034B5B6918420CBFD5
:1009F80000200120704700BF003C0140014B5861B6
:100A0800704700BF003C0140034B5B6918420CBFB4
:100A180000200120704700BF003C0140014B586195
:100A2800704700BF003C0140014BC0B218707047CE
:100A3800003C0240054B1A6818B922F480721A600B
:100A4800704742F480721A60704700BF003C024051
:100A5800054B1A6818B922F400721A60704742F4FC
:100A680000721A60704700BF003C0240054B1A68CC
:100A780018B922F480621A60704742F480621A60E2
:100A8800704700BF003C0240024B1A6842F4006203
:100A98001A607047003C0240024B1A6842F48052C8
:100AA8001A607047003C0240044B1A69002A03DAB6
:100AB8000349044A59605A60704700BF003C02402D
:100AC80023016745AB89EFCD024B1A6942F000421A
:100AD8001A617047003C0240044B5A69D20703D59B
:100AE8000349044A99609A60704700BF003C02407D
:100AF8003B2A19087F6E5D4C024B5A6942F001028D
:100B08005A617047003C0240034B1A7802F07F029A
:100B180010431870704700BF173C0240044B1A7806
:100B280002F0EF021A701A7810431870704700BF6D
:100B3800143C0240044B1A7802F0F3021A701A7837
:100B480010431870704700BF143C0240024B5869AC
:100B5800C0F34710704700BF003C0240014B1888A3
:100B680080B27047163C0240014B188880B270472B
:100B78001A3C0240014B188880B27047163C02406C
:100B8800014B188880B270471A3C0240024B187813
:100B9800AA3818BF01207047153C0240024B18784C
:100BA80000F00C00704700BF143C0240044B1A6967
:100BB80019B922EA0000186170471043186170479C
:100BC800003C0240034BDB6818420CBF00200120A8
:100BD800704700BF003C0240014BD860704700BF1F
:100BE800003C02400E4BDA68D00309D4DA68D1061B
:100BF80001D506207047DA68D20503D50220704770
:100C080001207047DA6812F0EF0F01D00720704713
:100C1800DB6813F0020F0CBF09200820704700BFE3
:100C2800003C024000B583B009238DF80730FFF778
:100C3800D9FF8DF807009DF80730012BF7D09DF8F4
:100C48000700C0B203B05DF804FB00BF70B50546ED
:100C580059B301292FD0022914BF4FF440764FF41D
:100C68000076FFF7DFFF092824D1144C236923F409
:100C78004073236121690E432661236923F0F80339
:100C88002361236943F002031D432561236943F46B
:100C980080332361FFF7C6FF236923F00203236132
:100CA800236923F0F803236170BD0E46FFF7BAFFEE
:100CB8000928DAD070BD4FF48076F7E7003C02408F
:100CC80038B50446FFF7AEFF3CB1012C08D0022C22
:100CD80014BF4FF440744FF40074092804D038BD91
:100CE80009284FF48074FAD10B4D2B6923F4407313
:100CF8002B612B691C432C612B6943F004032B6186
:100D08002B6943F480332B61FFF78CFF2B6923F0A9
:100D180004032B6138BD00BF003C024038B50446CF
:100D2800FFF780FF3CB1012C08D0022C14BF4FF410
:100D380040744FF40074092804D038BD09284FF4D2
:100D48008074FAD10B4D2B6923F440732B612B6906
:100D58001C432C612B6943F004032B612B6943F47A
:100D680080332B61FFF75EFF2B6923F004032B61AF
:100D780038BD00BF003C024038B50446FFF752FFBB
:100D88003CB1012C08D0022C14BF4FF440744FF42E
:100D98000074092804D038BD09284FF48074FAD1AA
:100DA8000B4D2B6923F440732B612B691C432C6179
:100DB8002B6943F400432B612B6943F480332B6187
:100DC800FFF730FF2B6923F400432B6138BD00BFC8
:100DD800003C0240F8B5074614461D46FFF722FFBF
:100DE800092800D0F8BD0B4E336923F440733361F2
:100DF800336943F440733361336943F0010333616A
:100E0800C7E90045FFF70EFF336923F0010333619B
:100E1800F8BD00BF003C024070B505460E46FFF71E
:100E280001FF092800D070BD0A4C236923F44073E0
:100E38002361236943F400732361236943F00103A9
:100E480023612E60FFF7EEFE236923F0010323617F
:100E580070BD00BF003C024070B505460E46FFF766
:100E6800E1FE092800D070BD0A4C236923F44073C1
:100E78002361236943F480732361236943F00103E9
:100E880023612E80FFF7CEFE236923F0010323613F
:100E980070BD00BF003C024070B505460E46FFF726
:100EA800C1FE092800D070BD094C236923F44073A2
:100EB800236123692361236943F0010323612E70B1
:100EC800FFF7B0FE236923F00103236170BD00BF63
:100ED800003C024038B505460C46FFF7A3FE09283A
:100EE80000D038BD054B1A881CB91543ADB21D801A
:100EF80038BD92B222EA05051D8038BD163C024075
:100F080038B505460C46FFF78DFE092800D038BDD8
:100F1800054B1A881CB91543ADB21D8038BD92B275
:100F280022EA05051D8038BD1A3C024038B5054641
:100F38000C46FFF777FE092800D038BD054B1A8804
:100F480024B992B222EA05051D8038BD1543ADB219
:100F58001D8038BD163C024038B505460C46FFF7E3
:100F680061FE092800D038BD054B1A8824B992B211
:100F780022EA05051D8038BD1543ADB21D8038BD78
:100F88001A3C024010B50446FFF74CFE092804BF7E
:100F9800014B1C7010BD00BF153C024070B50646E1
:100FA8000C461546FFF73EFE092807D1044B1A7870
:100FB80002F00F02164335432C431C7070BD00BF6E
:100FC800143C0240034B1A7842F002021A70FFF7F1
:100FD80029BE00BF143C024008B54B4B98422AD0AA
:100FE8004A4B984231D04A4B984238D0494B9842A4
:100FF8003FD0494B984246D0484B98424DD0484B39
:10100800984254D0474B98425BD0474B984262D0A5
:10101800464B98426BD0464B984200D008BD4FF4DF
:101028008060012100F060FD4FF480600021BDE880
:10103800084000F059BD0120014600F055FD01208F
:101048000021BDE8084000F04FBD0220012100F05A
:101058004BFD02200021BDE8084000F045BD0420FA
:10106800012100F041FD04200021BDE8084000F006
:101078003BBD0820012100F037FD08200021BDE814
:10108800084000F031BD1020012100F02DFD102096
:101098000021BDE8084000F027BD2020012100F014
:1010A80023FD20200021BDE8084000F01DBD4020A0
:1010B800012100F019FD40200021BDE8084000F0A2
:1010C80013BD8020012100F00FFD80200021BDE824
:1010D800084000F009BD4FF48070012100F004FDC4
:1010E8004FF480700021BDE8084000F0FDBC4FF4CB
:1010F8000070012100F0F8FC4FF400700021BDE8F9
:10110800084000F0F1BC00BF0000024000040240AB
:1011180000080240000C0240001002400014024087
:1011280000180240001C0240002002400024024037
:101138000028024000222DE9F00713460E68012717
:101148004FF0030804E00133102B02F102022CD007
:1011580007FA03F404EA0605A542F4D1D0F8009092
:1011680091F804C008FA02F4E44304EA0909C0F853
:101178000090D0F800900CFA02FA0CF1FF3C4AEA11
:101188000909BCF1010FC0F8009011D9C56891F8A0
:1011980007C02C40C460C5680CFA02F401332C4324
:1011A800102BC46002F10202D2D1BDE8F0077047EB
:1011B800D0F808A091F8059091F806C004EA0A0A48
:1011C800C0F808A0D0F808A009FA02F949EA0A0903
:1011D800C0F80890D0F8049029EA050545604568EC
:1011E8000CFA03FC1FFA8CFC4CEA05054560CDE7B8
:1011F80000234FF6FF720260037143718371C3715C
:10120800704700BF82B04FF480330193019B0B43BA
:101218000193019BC361C161019BC361C3690193D0
:10122800C369019302B07047036919420CBF0020DB
:1012380001207047006980B2704700BF43691942B6
:101248000CBF002001207047406980B2704700BF82
:1012580001837047418370470AB94183704701830E
:10126800704700BF41617047436959404161704709
:10127800CB0800EB830001F0070110B48900046A71
:101288000F238B4024EA03030362036A5DF8044BCF
:101298008A4013430362704708B5174B984212D02F
:1012A800164B98421BD0164B984200D008BD4FF4FD
:1012B8000000012100F03CFC4FF400000021BDE8D3
:1012C800084000F035BC4FF40010012100F030FC5C
:1012D8004FF400100021BDE8084000F029BC4FF48D
:1012E8008000012100F024FC4FF480000021BDE8BB
:1012F800084000F01DBC00BF0054004000580040EA
:10130800005C0040F0B5044685B068460D46A688E6
:1013180000F0F8FA029930482A68DFF8C4C0A0FB48
:10132800013026F03F063604800C360C87B23E4367
:10133800A680238823F001031B041B0C624523802D
:1013480023D85300B1FBF3F39BB2032B07F101073A
:1013580098BF04232784A38323886E89A8882989B2
:10136800AA899BB243F001032380238823F4816375
:1013780023F002031B0430431B0C03430A439BB2B4
:1013880092B22380228105B0F0BDEE884BF6FF7340
:101398009E421AD002EB820202EB8202B1FBF2F308
:1013A8009BB243F48043C3F30B020AB943F0010331
:1013B8004FF49671094A01FB00F082FB0010800986
:1013C800013043F400432084C5E702EB4202B1FB3D
:1013D800F2F39BB2E7E700BF83DE1B43D34D6210F5
:1013E800A0860100002310B44BF6FF7141F2883447
:1013F8004FF480420460C1808281838003814381ED
:101408005DF8044B704700BF038829B923F0010336
:101418001B041B0C038070479BB243F0010303803D
:10142800704700BF838C21B99BB243F010038384BB
:10143800704723F010031B041B0C8384704700BF04
:10144800838C9BB201F00F0123F00F0319438184B1
:10145800704700BF038829B923F480731B041B0C51
:10146800038070479BB243F480730380704700BFCA
:10147800038829B923F400731B041B0C03807047ED
:101488009BB243F400730380704700BF1AB901F0A0
:10149800FE010182704741F001010182704700BFDF
:1014A800038829B923F480631B041B0C038070474D
:1014B8009BB243F480630380704700BF83899BB26B
:1014C80001F0FE0123F0FE0319438181704700BF3C
:1014D800838929B923F001031B041B0C83817047FE
:1014E8009BB243F001038381704700BF038829B989
:1014F80023F040031B041B0C038070479BB243F08E
:1015080040030380704700BF038819B9C3F30E0373
:10151800038070476FEA43436FEA53439BB20380EB
:10152800704700BF038829B123F080031B041B0CFC
:10153800038070479BB243F080030380704700BF6D
:10154800B1F5804F838B05D023F480431B041B0C1B
:10155800838370479BB243F480438383704700BF03
:10156800B1F5006F038805D023F400631B041B0C3E
:10157800038070479BB243F400630380704700BF49
:10158800B1F5005F038805D023F400531B041B0C3E
:10159800038070479BB243F400530380704700BF39
:1015A800038829B923F010031B041B0C0380704720
:1015B8009BB243F010030380704700BF018270475D
:1015C800008AC0B2704700BF038829B923F480534A
:1015D8001B041B0C038070479BB243F480530380A9
:1015E800704700BFB1F5006F038805D023F400638E
:1015F8001B041B0C038070479BB243F400630380F9
:10160800704700BF038829B923F020031B041B0C73
:10161800038070479BB243F020030380704700BFEC
:10162800008BC0F307207047838829B923F400632F
:101638001B041B0C838070479BB243F400638380B8
:10164800704700BF838829B923F480531B041B0CFF
:10165800838070479BB243F480538380704700BFF8
:1016680082B0002301930190019B19440191019BD1
:10167800188880B202B0704783889BB21AB923EAEF
:10168800010181807047194381807047828A038BEA
:1016980090B240EA034021F07F4318400B1A5842A9
:1016A80058417047828A038B90B240EA034020F089
:1016B8007F40704782B000230A0F00930193019086
:1016C8000092009B21F07F4153B1019B1433019399
:1016D800019B1B6819420CBF0020012002B0704713
:1016E800019B1833090C0193F2E700BFC94389B283
:1016F800818270478388808A80B208409BB206D076
:1017080001F0E06113EA11410CBF0020012070478D
:10171800C94389B2818270470F4B1048196800226B
:1017280041F0010130B419609A6019680C4D0D4CF4
:1017380021F0A85121F4102119605D60C3F884409C
:10174800C3F88800196821F48021196030BCDA6078
:10175800C3F88C20704700BF0038024000300024D6
:101768001030002400300020024B00221A7018703C
:10177800704700BF0238024082B000230B4A019331
:1017880013689B030CD4019B01330193019BB3F5B0
:10179800A04FF5D1054B1868C0F3404002B0704720
:1017A800019B01330193019BF4E700BF003802401D
:1017B800034B1A6822F0F80242EAC000186070472A
:1017C80000380240014B1860704700BF00004742D4
:1017D800064B002201281A701A7005D0042802D17D
:1017E80005221A70704770471870704770380240A9
:1017F800014B1860704700BF800E474230B4029C0E
:10180800064D40EA04605B080143013B41EA82124D
:1018180042EA03436B6030BC704700BF00380240A7
:10182800014B1860704700BF600047420907034B2F
:1018380041EA8010C3F88400704700BF00380240B6
:10184800014B1860704700BF68004742120742EA20
:101858000161034B41EA8010C3F88800704700BF5C
:1018680000380240014B1860704700BF70004742C3
:10187800014B1860704700BF4C004742034B9A6801
:1018880022F0EC6211430843986070470038024028
:10189800034B9A6822F078421143084398607047D6
:1018A80000380240034B9A6822F003021043986004
:1018B800704700BF00380240024B986800F00C00E7
:1018C800704700BF00380240034B9A6822F0F002CC
:1018D80010439860704700BF00380240034B9A6875
:1018E80022F4E05210439860704700BF003802406D
:1018F800034B9A6822F4604242EAC000986070473D
:10190800003802401F4A936803F00C03042B10B4FC
:101918001BD0082B1CD01C4B03601A491B4A8C682F
:10192800C4F30314145DE34043608C68C4F3822459
:10193800145D23FA04F4846089685DF8044BC1F3EC
:101948004231525CD340C3607047114B0360E4E7F7
:1019580054685168526863024CBF0D4B0A4B01F042
:101968003F01C2F38812B3FBF1F303FB02F3054A0C
:101978005268C2F3014201325200B3FBF2F3036032
:10198800CBE700BF003802400024F400000000202C
:1019980040787D0100F44073B3F5407F09D1084ACF
:1019A800916820F0704321F4F81123F440730B433D
:1019B8009360034B1A6FC0F30B001043186770470E
:1019C80000380240014B1860704700BF3C0E474288
:1019D800014B1860704700BF400E4742014B18602A
:1019E800704700BF5C014742044BD3F88C20013894
:1019F80022F01F020243C3F88C20704700380240CF
:101A0800054BD3F88C20013822F4F85242EA002220
:101A1800C3F88C20704700BF00380240044BD3F84D
:101A28008C2022F440121043C3F88C00704700BF8A
:101A380000380240044BD3F88C2022F440021043B3
:101A4800C3F88C00704700BF00380240044BD3F83D
:101A58008C2022F440321043C3F88C00704700BF3A
:101A680000380240014B1860704700BFE011474240
:101A7800044B1A6B19B922EA000018637047104327
:101A88001863704700380240044B5A6B19B922EAB0
:101A9800000058637047104358637047003802408D
:101AA800044B9A6B19B922EA0000986370471043F7
:101AB8009863704700380240044B1A6C19B922EA3F
:101AC80000001864704710431864704700380240DB
:101AD800044B5A6C19B922EA000058647047104345
:101AE8005864704700380240044B1A6919B922EA51
:101AF80000001861704710431861704700380240B1
:101B0800044B5A6919B922EA00005861704710431A
:101B18005861704700380240044B9A6919B922EAA3
:101B28000000986170471043986170470038024080
:101B3800044B1A6A19B922EA000018627047104368
:101B48001862704700380240044B5A6A19B922EAF1
:101B580000005862704710435862704700380240CE
:101B6800044B1A6D19B922EA000018657047104332
:101B78001865704700380240044B5A6D19B922EABB
:101B88000000586570471043586570470038024098
:101B9800044B9A6D19B922EA000098657047104302
:101BA8009865704700380240044B1A6E19B922EA4A
:101BB80000001866704710431866704700380240E6
:101BC800044B5A6E19B922EA000058667047104350
:101BD8005866704700380240044B1A7819B922EA4F
:101BE8000000187070471043187070470D38024095
:101BF8004309012B0BD0022B094B0CBF1B6F5B6FEA
:101C080000F01F0023FA00F000F001007047044BB9
:101C18001B6800F01F0023FA00F000F00100704775
:101C280000380240024B5A6F42F080725A67704780
:101C380000380240034BDB6818420CBF002001202B
:101C4800704700BF00380240014B1870704700BF52
:101C58000E38024008B52D4B98421BD02C4B9842A9
:101C680024D02C4B98422DD02B4B984236D02B4B5E
:101C780098423FD02A4B984200D008BD4FF400103C
:101C88000121FFF761FF4FF400100021BDE8084073
:101C9800FFF75ABF4FF480500121FFF755FF4FF46B
:101CA80080500021BDE80840FFF74EBF4FF4804048
:101CB8000121FFF73DFF4FF480400021BDE80840B7
:101CC800FFF736BF4FF400400121FFF731FF4FF413
:101CD80000400021BDE80840FFF72ABF4FF400503C
:101CE8000121FFF731FF4FF400500021BDE8084003
:101CF800FFF72ABF4FF480100121FFF725FF4FF4AB
:101D080080100021BDE80840FFF71EBF00300140E9
:101D180000380040003C00400034014000500140C1
:101D2800005401402DE9F007B1F802A0B1F8009085
:101D3800B1F804800F894E898D89CC89B1F806C025
:101D48000A8A03884AEA090141EA080141EA0C01C2
:101D5800394331432943214303F441530B439BB295
:101D68000380838B23F400631B041B0C8383BDE86F
:101D7800F0070282704700BF838B8A6823F47B6375
:101D880023F00F031B042DE9F0031B0C02248383AB
:101D98000484B0F81CC0A2421FFA8CFC52D02B4B12
:101DA8008C889D68002C0CBF4FF001084FF002088A
:101DB8002D0242D4254BDFF89C90D3F88450D3F8F9
:101DC80084605F68CB8807F03F07C5F38815B9FBC7
:101DD800F7F7B3F5007FC6F3027605FB07F5B5FB09
:101DE800F6F516BF4FEA48182D0AB5FBF8F505EBCE
:101DF80085056D00B5FBF2F20532154D92B2A5FBD3
:101E08000262D2085508AE1E02F00102FD2E94BFF0
:101E180045EA022202220F884E888D894CEA070182
:101E280041F4006131432943134389B20C439BB207
:101E380003848483BDE8F00370479D6825F400059A
:101E48009D60B7E78C88CB88E5E700BF0038024083
:101E5800CDCCCCCC40787D010023072202820380C0
:101E680043808380C380038143818381C38170471A
:101E7800002302228260038043808380C3808381A1
:101E8800704700BF038829B923F040031B041B0CCB
:101E9800038070479BB243F040030380704700BF44
:101EA800838B29B923F480631B041B0C838370473D
:101EB8009BB243F480638383704700BF038823F495
:101EC80000631B041B0C038003889BB21943018029
:101ED800704700BFB1F5804F038805D023F48043D5
:101EE8001B041B0C038070479BB243F480430380A0
:101EF800704700BF4FF6FF639942038804D09BB236
:101F080043F480730380704723F480731B041B0C15
:101F180003807047838829B923F004031B041B0C32
:101F2800838070479BB243F004038380704700BFEF
:101F3800838829B923F010031B041B0C8380704786
:101F48009BB243F010038380704700BF838B23F458
:101F58007B6323F00F031B0402221B0C8383028480
:101F6800838B0A8830B44D888C8889899BB22B432F
:101F780043F4006322F40072234392B20B43002A15
:101F88009BB214BF00224FF480721343838330BC8A
:101F9800704700BF808980B2704700BF8181704759
:101FA800038829B923F400531B041B0C03807047D2
:101FB8009BB243F400530380704700BF03889BB271
:101FC80043F4805303807047012914BF008B808A33
:101FD80080B27047008A80B2704700BF83889BB286
:101FE8001AB923EA0101818070471943818070473B
:101FF8000123090903FA01F1838889B29BB21AB94E
:1020080023EA01018180704719438180704700BF2E
:10201800038919420CBF002001207047C94389B2C7
:102028000181704710B48488008901F00F030122F0
:1020380080B202FA03F31840A4B205D009098A4015
:1020480014420CBF002001205DF8044B704700BF0C
:1020580001F00F01012303FA01F1C94389B201819B
:10206800704700BF08B54FF480400121FFF76CFDB1
:102078004FF480400021BDE80840FFF765BD00BF70
:10208800014B1860704700BF00380140014B1860D1
:10209800704700BF2000274201F0FC0303F1804392
:1020A80003F59C3301F0030110B489009C680F22EA
:1020B8008A4024EA02029A609A685DF8044B8840D4
:1020C80002439A60704700BF014B1860704700BF19
:1020D800DC002742014B1860704700BF000427420C
:1020E800024B186AC0F30020704700BF0038014057
:1020F80008B5604B984235D0B0F1804F3CD05E4B6C
:10210800984243D05D4B98424AD05D4B984251D09B
:102118005C4B984258D05C4B98425FD05B4B9842DE
:1021280066D05B4B98426DD05A4B984276D05A4B4A
:1021380098427FD0594B984200F08880584B98427B
:1021480000F08E80574B984200D008BD4FF4807045
:102158000121FFF7EDFC4FF480700021BDE8084035
:10216800FFF7E6BC01200146FFF7EEFC0120002145
:10217800BDE80840FFF7E8BC01200146FFF7D8FC9E
:1021880001200021BDE80840FFF7D2BC0220012150
:10219800FFF7CEFC02200021BDE80840FFF7C8BCCD
:1021A80004200121FFF7C4FC04200021BDE80840F9
:1021B800FFF7BEBC08200121FFF7BAFC0820002168
:1021C800BDE80840FFF7B4BC10200121FFF7B0FCC0
:1021D80010200021BDE80840FFF7AABC20200121FB
:1021E800FFF7A6FC20200021BDE80840FFF7A0BCAF
:1021F80002200121FFF7A8FC02200021BDE80840C9
:10220800FFF7A2BC4FF480300121FFF79DFC4FF48B
:1022180080300021BDE80840FFF796BC4FF400303D
:102228000121FFF791FC4FF400300021BDE8084080
:10223800FFF78ABC4FF480200121FFF785FC4FF49B
:1022480080200021BDE80840FFF77EBC4020012126
:10225800FFF76EFC40200021BDE80840FFF768BC8E
:1022680080200121FFF764FC80200021BDE80840A0
:10227800FFF75EBC00000140000400400008004079
:10228800000C004000100040001400400004014011
:10229800004001400044014000480140001800404F
:1022A800001C004000200040234A0388904270B47C
:1022B8009BB212D002F5806290420ED0B0F1804FEE
:1022C8000BD0A2F58032904207D002F5806290428E
:1022D80003D002F58062904203D14A8823F070034C
:1022E8001343164A90421ED002F5806290421AD0DB
:1022F8000E894D680C8823F4407302F56C429BB23A
:10230800334390420380C562048506D00C4B984243
:1023180003D00123838270BC70478B7A0386012324
:10232800838270BC704703800B884A68C262038549
:102338000123838270BC70470000014000100040F8
:102348000004014000234FF0FF3242600380038104
:1023580043808372704700BF01858282704700BF47
:10236800038823F070031B041B0C1943018070477A
:1023780041627047C1627047406A7047008D80B201
:10238800704700BF038829B923F002031B041B0C04
:10239800038070479BB243F002030380704700BF7D
:1023A800038829B923F004031B041B0C038070471E
:1023B8009BB243F004030380704700BF038829B928
:1023C80023F080031B041B0C038070479BB243F06F
:1023D80080030380704700BF038823F008031B04B1
:1023E8001B0C038003889BB219430180704700BF10
:1023F800038823F440731B041B0C038003889BB2DF
:1024080019430180704700BF038829B923F00103ED
:102418001B041B0C038070479BB243F0010303802D
:10242800704700BFF0B4048CB1F802C08F890E88E1
:102438001B4D24F001042404240C0484028C848899
:10244800038B22F0020223F0730312044CEA0707FD
:102458001B04120CBFB21B0CA84247EA0202A4B22A
:1024680043EA06030AD005F58065A84206D08968C4
:1024780084800383F0BC416302847047B1F80EC0C6
:102488004F8A0D8A8E8822F0080242EA0C023D43E8
:1024980024F4407422F00402ADB232432C43E6E740
:1024A80000000140F0B4048CB1F80CC04F880E88CD
:1024B8001F4D24F010042404240C0484028C848806
:1024C800038B22F02002120423F4E643120C1B04AF
:1024D80042EA0C121B0C42EA071243EA0623A842FE
:1024E80092B2A4B29BB20AD005F58065A84206D084
:1024F800896884800383F0BC816302847047CD8936
:10250800B1F810C08F884E8A22F0800292B242EA57
:10251800051224F440644FF6BF75154044EA8C0454
:1025280045EA071244EA860492B2A4B2E0E700BF83
:1025380000000140F0B4048CB1F80CC04F880E883C
:102548001E4D24F480742404240C0484028C848892
:10255800838B22F400721204120C23F0730342EAF4
:102568000C221B0442EA07221B0CA84292B2A4B216
:1025780043EA06030AD005F58065A84206D08968B3
:1025880084808383F0BCC16302847047CD89B1F82D
:1025980010C08F884E8A22F4006292B242EA052265
:1025A80024F440544FF6FF35154044EA0C1445EA2C
:1025B800072244EA061492B2A4B2E0E70000014000
:1025C800F0B4048CB1F80CC04F880E88164D24F472
:1025D80080542404240C0484028C8488838B22F481
:1025E8000052120423F4E643120C1B0442EA0C3294
:1025F8001B0C42EA073243EA0623A84292B2A4B26D
:102608009BB20AD005F58065A84206D08968848007
:102618008383F0BC0164028470470D8A24F48044EB
:1026280044EA8514A4B2F1E70000014000230380C6
:102638004380838083608381C381038243827047A0
:10264800038C10B401249BB28C4023EA040421F0CB
:102658000803048418307BB10439C1F34E0148F6ED
:10266800FF730C5823400B5012020B585DF8044BB3
:1026780092B21A430A50704749084FF68F7344586C
:102688002340435043585DF8044B1A434250704767
:102698004163704781637047C16370470164704745
:1026A800038B23F070031B041B0C19430183704731
:1026B800038B23F4E0431B041B0C43EA01218BB278
:1026C80003837047838B23F070031B041B0C19438F
:1026D80081837047838B23F4E0431B041B0C43EA7C
:1026E80001218BB283837047038B23F008031B04FB
:1026F8001B0C194301837047038B23F400631B04ED
:102708001B0C43EA01218BB203837047838B23F0B0
:1027180008031B041B0C194381837047838B23F424
:1027280000631B041B0C43EA01218BB283837047AF
:10273800038B23F004031B041B0C1943018370470C
:10274800038B23F480631B041B0C43EA01218BB227
:1027580003837047838B23F004031B041B0C19436A
:1027680081837047838B23F480631B041B0C43EA2B
:1027780001218BB283837047038B23F080031B04F2
:102788001B0C194301837047038BC3F30E0343EA01
:1027980001218BB203837047838B23F080031B04D2
:1027A8001B0C194381837047838BC3F30E0343EAE1
:1027B80001218BB283837047038C23F002031B042F
:1027C8001B0C194301847047038C23F008031B0476
:1027D8001B0C194301847047038C23F020031B044E
:1027E8001B0C43EA01118BB203847047038C23F05E
:1027F80080031B041B0C43EA01118BB2038470474E
:10280800038C23F400731B041B0C43EA01218BB2D5
:1028180003847047038C23F400631B041B0C43EAF6
:1028280001218BB203847047038C23F400531B04EB
:102838001B0C43EA01318BB203847047038C10B43C
:1028480001248C409BB223EA04030384038C5DF8C3
:10285800044B8A4013439BB203847047038C10B423
:1028680004248C409BB223EA04030384038C5DF8A0
:10287800044B8A4013439BB2038470470B88F0B41F
:10288800002B32D0042B58D0082B038C00F0838007
:102898004E888F880D89CC8823F480510904090C4F
:1028A8000184828B038C22F4407223F400531205B6
:1028B8005B04120D5B0C42EA072243EA063342EA44
:1028C80005329BB243F4805392B282830384838B94
:1028D80023F440631B041B0C8383838B9BB243EA62
:1028E80004239BB28383F0BC7047028C8D880E89C9
:1028F8004C88C98822F001021204120C0284028B4F
:10290800038C92B222F0F30223F00A0342EA061281
:102918001B0444F0010492B21B0C23432A43028394
:102928000384038B23F00C031B041B0C0383038B0E
:102938009BB20B430383F0BC7047028C4E888C8893
:102948000F89C98822F010021204120C0284038B2A
:10295800058C23F440731B051B0DADB243EA073207
:1029680025F0A00545EA061392B242EA04229BB27A
:1029780043F0100392B202830384038B23F4406371
:102988001B041B0C0383038B9BB243EA01239BB2FA
:102998000383F0BC704723F480731B041B0C4D8821
:1029A8008C880E89CA880384818B038C89B29BB278
:1029B80021F0F30123F4206341EA061143EA0523D9
:1029C80089B29BB243F48073214381830384838B50
:1029D80023F00C031B041B0C8383838B9BB21343D0
:1029E800838380E700230122828003804380C380A1
:1029F80003817047F0B44D888C880B88B1F808C003
:102A0800028CC988002D14BF00260226012C14BF91
:102A180001270227002B4BD022F010021204120CBF
:102A28000284038B028C23F440731B051B0D92B2A6
:102A380043EA0C3322F0A0029BB242EA051543EAAE
:102A48000424ADB2A4B245F0100504830584038BB9
:102A580023F440631B041B0C0383038B9BB243EAE0
:102A680001239BB20383038C23F001031B041B0C7B
:102A78000384028B038C92B222F0F3029BB242EAE7
:102A88000C1C23F00A0343F001031FFA8CFC1E43BD
:102A98004CEA070707830684038B23F00C031B0407
:102AA8001B0C0383038B9BB219430183F0BC704753
:102AB80022F001021204120C0284038B028C9BB2D6
:102AC80023F0F30322F00A0243EA0C13120445F040
:102AD80001059BB2120C1C432A4304830284028B17
:102AE80022F00C021204120C0283038B9BB20B43DC
:102AF8000383028C22F010021204120C0284038B4E
:102B0800028C23F440731B051B0D92B243EA0C336D
:102B180022F0A0029BB242F0100243EA072742EAE1
:102B2800061607830684038B23F440631B041B0CDF
:102B38000383038B9BB243EA012189B20183F0BC72
:102B4800704700BF406B7047806B7047C06B704721
:102B5800006C7047038B23F00C031B041B0C0383CE
:102B6800038B9BB219430183704700BF038B23F487
:102B780040631B041B0C0383038B9BB243EA0121B4
:102B88008BB20383704700BF838B23F00C031B04B5
:102B98001B0C8383838B9BB219438183704700BFCF
:102BA800838B23F440631B041B0C8383838B9BB2AE
:102BB80043EA01218BB28383704700BFB1F802C09A
:102BC8000B888A89F0B48F88CE880D894C894CEAA5
:102BD80003033B4333432B43234313439BB2A0F8E4
:102BE8004430F0BC704700BF0023038043808380DB
:102BF800C380038143818381704700BFB0F84430AC
:102C080021B9C3F30E03A0F8443070476FEA434379
:102C18006FEA53439BB2A0F844307047838829B9C0
:102C280023F004031B041B0C838070479BB243F002
:102C380004038380704700BF838829B923F0010308
:102C48001B041B0C838070479BB243F001038380F5
:102C5800704700BF83899BB21AB923EA01018181B9
:102C6800704719438181704781827047038A1942EE
:102C78000CBF002001207047C94389B20182704708
:102C8800038A828911EA030092B203D011420CBF71
:102C980000200120704700BFC94389B201827047F4
:102CA8000A43A0F84820704783899BB21AB923EADF
:102CB800010181817047194381817047838829B94F
:102CC80023F008031B041B0C838070479BB243F05E
:102CD80008038380704700BF038923F007031B04A0
:102CE8001B0C0381704700BF038923F070031B048A
:102CF8001B0C1943018103899BB243F0070303812D
:102D0800704700BF602930B4048C24D024F001043B
:102D18002404240C0484058B048CADB225F0F3053F
:102D2800A4B245F0010524F00A0445EA031344F06F
:102D380001049BB2224303830284038923F07003B6
:102D48001B041B0C0B43038103899BB243F007034D
:102D5800038130BC704724F010042404240C04843C
:102D6800048B058C24F440742405ADB2240D25F0A1
:102D7800A00544F4807445F0100544EA033345EA9D
:102D880002129BB292B203830284D6E710B404897C
:102D980042EA0323E4B223439BB219430181038926
:102DA8005DF8044B23F077031B041B0C43F07703F7
:102DB8000381704710B4048942EA0323E4B2234331
:102DC8009BB21943018103895DF8044B9BB243F41C
:102DD80080430381704700BF038923F070031B04FD
:102DE8001B0C194301817047838823F070031B046F
:102DF8001B0C838083889BB219438180704700BF76
:102E0800038923F007031B041B0C038103899BB26E
:102E180019430181704700BF038923F080031B0415
:102E28001B0C038103899BB219430181704700BFC2
:102E380010B40489E4B221430A4342EA03239CB252
:102E480004815DF8044B704770B40589048B068CC7
:102E580024F4407424F00304B6B226F0220625F0C8
:102E68000705240432432D04240C2D0C44F48074EB
:102E780042EA0313294344F001049EB2018104830A
:102E8800068470BC704700BF838829B923F080038B
:102E98001B041B0C838070479BB243F08003838024
:102EA800704700BFA0F85010704700BF40F0BF60E7
:102EB800024B40F40030D860704700BF00ED00E0DE
:102EC800C378F0B463B90378194A5909203103F07B
:102ED8001F03012000FA03F342F82130F0BC7047C9
:102EE800144B4778DA68857803781149D243C2F3DE
:102EF8000222C2F104040F26E4B207FA04F446FAE7
:102F080002F2E4B22A40224303F1604303F561432D
:102F18001201D2B283F800230378012003F01F02C4
:102F28005B0900FA02F241F82320F0BC704700BFA9
:102F380000E100E000ED00E021F0604121F07F01B8
:102F4800014B08439860704700ED00E0044B1A6994
:102F580019B922EA000018617047104318617047D8
:102F680000ED00E0044B1A6804280CBF42F004028C
:102F780022F004021A60704710E000E082B0044BAF
:102F88000190019A1A601A68002AFCD102B07047B1
:102F9800F40500202DE9F041002594B00024B04E3E
:102FA800DFF8FC82204688F80040347001F066F9AA
:102FB800012001F063F9022001F060F9032001F01B
:102FC8005DF90BA8FEF79EFC0C9B6422B3FBF2F2A2
:102FD800013AB2F1807F374608D2A24B5A60A24A22
:102FE800F02182F8231007229C601A60002001F06B
:102FF80077F9012001F074F9022001F071F903203A
:1030080001F06EF93B7803F0FF0073BB01F074F92F
:103018000A20FFF7B3FF012001F06EF90A20FFF73D
:10302800ADFF022001F068F90A20FFF7A7FF01357C
:10303800032001F061F9EDB20A20FFF79FFF102D80
:10304800E0D1002001F058F9012001F055F90220E3
:1030580001F052F9032001F04FF9013D0A20FFF772
:103068008DFF15F0FF05ECD1CCE7002001F090F9B9
:103078000128FAD00024042001213470FEF71CFD39
:1030880008200121FEF7F4FC4FF470430226069352
:1030980076488DF81C60032306A98DF81D308DF83D
:1030A8001E408DF81F40FEF745F832466F480C2148
:1030B800FEF7DEF832466D480D21FEF7D9F83246A4
:1030C8006A480E21FEF7D4F8324668480F21FEF709
:1030D800CFF8674B67481A68ADF828404FF47A6311
:1030E800B2FBF3F3013B644AADF822409BB2138074
:1030F80008A940F2CF720992ADF82030FFF7D4F852
:103108005C480121FFF75AF960230126ADF83C30ED
:103118005848ADF848404FF47A730FA91193ADF8A9
:103128003E60FFF77FF9224621465248FFF786FBAB
:1031380050480821FFF7D8FA4E480FA9FFF7B2F90F
:1031480022464C480421FFF779FB4A480821FFF73B
:10315800D3FA48480FA9FFF7EDF922464548082158
:10316800FFF76CFB43480821FFF7D0FA41480FA945
:10317800FFF726FA22463F480C21FFF75FFB3D4840
:103188000821FFF7CBFA3B483146FFF73DF92146C6
:1031980022463848FFF752FB224636480421FFF7FB
:1031A8004DFB224633480821FFF748FB22460C21F5
:1031B8003048FFF743FB40238DF8113007238DF883
:1031C800123004A808238DF813308DF810408DF8BC
:1031D80016408DF814408DF8154002F01FF81E2097
:1031E800FFF7CCFE80238DF80E408DF80F40234C5E
:1031F8008DF80C3003A810238DF80D3088F8006086
:1032080002F03BF8234629210622322001F02CFE49
:1032180022781B4B1B4C1A702B2106222346322086
:1032280001F022FE184B22781A70184B00931848A8
:10323800184A194B314602F0CFF93B78002BFCD0E5
:10324800002001F0A5F80128FAD000211348FEF764
:10325800DBF80F4803F021F90D4802F0F7FF9DE66F
:10326800BF05002010E000E000ED00E0000C024087
:103278001000002000080040BC050020F40B0020CE
:10328800FF050020F8050020FE050020480000206A
:1032980000060020140000201C01002000540040FB
:1032A800BE0500201FB50121002001F033F80020E1
:1032B80000F0E4FF012000F0E1FF022000F0DEFF53
:1032C800032000F0DBFF6846FEF71CFB019B64222D
:1032D800B3FBF2F2013AB2F1807F09D2314B5A6066
:1032E800314AF02182F8231000229A6007221A60DE
:1032F800002001F04DF80128044650D1002000F0CC
:10330800E3FF204600F0E0FF022000F0DDFF03208D
:1033180000F0DAFF254B264C1A684FF496732360A9
:1033280052B9002001F034F801280FD12368002B8E
:10333800F7D10BE0236823B1002001F029F8012818
:10334800F8D0002001F024F800B92060206830BBD4
:1033580000F0C6FF012000F0C3FF022000F0C0FF0C
:10336800032000F0BDFF002001F012F80128FAD078
:10337800FDF79AFB00F0EEFE00F0D0FA00F022FB19
:1033880000F038FD00F004FE08480021FDF744FD78
:10339800002000F0B1FF0A20FFF7F0FDF8E7FFF783
:1033A800F9FD00BF10E000E000ED00E0FCFF0308BD
:1033B800F4050020034B1A6812B11A68013A1A6022
:1033C800704700BFF4050020022108B55820FDF71A
:1033D8003DFC06484FF05531FDF71EFD022000F078
:1033E8008BFF0520FFF7CAFDF8E700BFFCFF0308C5
:1033F80008B5034B1B780BB9FFF7E6FFFEE700BFE4
:10340800BE0500207047FEE7FEE7FEE7FEE77047CF
:1034180070477047F8B5FFF7CDFF614B1B781BB9B4
:10342800BDE8F840FFF7C6BF5E4B5F4D00225A70FB
:103438009A7095F90020901C01DA072202E0022A0E
:1034480001DDF9225A70594E96F90020911C01DAD3
:10345800072202E0022A01DDF9229A705B7813B98B
:10346800504B9B7823B152484E49042201F0A8FFE3
:10347800504B1A780132D2B20A2A1A701F4640F00D
:103488008E800024214622464B4834702C70FFF76A
:10349800D5F9224648480421FFF7D0F92246464884
:1034A8000821FFF7CBF922464348444C0C21FFF78B
:1034B800C5F9292106223D4B322001F0D5FC404BAD
:1034C80032781B78D31A33702B210622364B3220E0
:1034D80001F0CAFC3B4B2A781B78D21AD2B253B2FD
:1034E8002A7096F90020002BB8BF5B4282EAE2718D
:1034F800A1EBE271DBB2C9B28B4238BF0B46237035
:103508002378002B49D002320CDA2B480C210122F7
:10351800FFF794F9237828484FF47A7191FBF3F177
:10352800FFF7BCF896F90030022B0CDD2248042185
:103538000122FFF783F923781F484FF47A7191FB32
:10354800F3F1FFF7A7F895F90030022B0CDD1A48C4
:1035580000210122FFF772F9237817484FF47A7196
:1035680091FBF3F1FFF794F895F9003002330CDA88
:10357800114808210122FFF761F923780E484FF41A
:103588007A7191FBF3F1FFF787F823780A4840F244
:10359800CF7191FBF3F1FEF7EDFE00233B70F8BD10
:1035A800BE050020C1050020F8050020F40B00200E
:1035B80000060020C505002000080040C0050020C6
:1035C800FF050020FE050020024B01201870FDF7C2
:1035D80025BA00BFBF05002010B5094CA37A4BB12E
:1035E800084B1A6922F006021A6100F013F8204607
:1035F80002F01CFE4FF48020BDE81040FDF70EBA23
:103608000006002000ED00E0014802F04FBF00BFB7
:10361800000600203D4BD3F8882042F47002C3F81E
:1036280088203B4B1A6842F001021A6000229A6017
:10363800196821F0847121F4803119603549596085
:10364800196882B021F480211960DA600092019231
:103658001A6842F480321A602D4B1A6802F400325C
:103668000192009A01320092019A1AB9009AB2F5B1
:10367800A04FF1D11B6813F4003318BF0123019345
:10368800019B012B224B04BF234A5A601A6C42F05B
:1036980080521A64214A116821F4404111609A68E5
:1036A8009A609A689A609A6842F480529A601A6896
:1036B80042F080721A60164B1A689201FBD5184ABC
:1036C80040F2027111609A6822F003029A609A68C7
:1036D80042F002029A600E4B9A6802F00C02082A25
:1036E800F9D19A6822F400029A600E4AC3F884203D
:1036F8001A6842F080621A60054B1B681B01FBD5F3
:10370800024B4FF000629A6002B0704700ED00E093
:10371800003802401030002408544107007000406F
:10372800003C024080400030F7B50120294D014699
:10373800FEF79EF94FF4D85300260093032702237F
:10374800284669468DF804308DF805708DF80660B6
:103758008DF80760FDF7EEFC284608210A22FDF7E0
:1037680087FD284609210A22FDF782FD28460B21FC
:103778000A22FDF77DFD28460A220C21FDF778FD77
:1037880001244FF480632846694600938DF806406B
:103798008DF807408DF80570FDF7CCFC0A210A4624
:1037A8002846FDF765FD21464FF48040FEF790F965
:1037B80021468020FEF768F921464FF08050FEF739
:1037C800B7F93046214600F0A5FD2046FDF726F959
:1037D80003B0F0BD0000024007B54FF4C060FFF72A
:1037E80065FB43238DF804300322012301A88DF8DB
:1037F80005308DF806208DF80730FFF761FB03B020
:103808005DF804FB782358430722B0FBF2F000234D
:1038180001338342FCD970474FF47A735843FFF75A
:10382800F1BF000012230B800048704734000020CD
:1038380004230B80004870473000002010B5044C6A
:1038480004480A46214602F00BF9204610BD00BF85
:10385800D40C00203C6A000808B50A4608B9044898
:1038680000E00448044902F0FBF8034808BD00BF23
:103878004F6A0008636A0008D40C002008B50A469D
:1038880008B9044800E00448044902F0E9F803488C
:1038980008BD00BF776A0008846A0008D40C0020BD
:1038A80010B5044C04480A46214602F0D9F82046CF
:1038B80010BD00BFD40C0020916A000810B5044C5C
:1038C80004480A46214602F0CBF8204610BD00BF46
:1038D800D40C00209C6A00087047704770477047F6
:1038E800704770470A4B1A681823B2FBF3F2013A83
:1038F800B2F1807F0AD2074B5A60074AF02182F85A
:10390800231000229A6007221A607047FEE700BF62
:103918001000002010E000E000ED00E030B585B0B8
:10392800A5238DF8003008238DF8083007230024DC
:103938008DF80A301025302302A88DF80B308DF849
:1039480009408DF80C408DF80D408DF80E5001F0AF
:103958007DF801A88DF804408DF8054001F05CF968
:10396800284601F073F968462021012201F04EF83B
:10397800202101220DF1030001F02CF91E20FFF790
:10398800FDFA0DF103000F21012201F023F99DF842
:103998000330D42B04D0FFF717FDFFF715FD0FE018
:1039A800204600F091FC002000F0F2FC0028FAD03C
:1039B800002000F0EDFC0128FAD0002000F090FC77
:1039C80005B030BD2DE9F3410D200121FEF750F877
:1039D8000024012520270226B248009769468DF861
:1039E80004508DF806408DF807408DF80560FDF706
:1039F800A1FB3946AB48FDF72DFCAB48009569465D
:103A08004FF400778DF804508DF806408DF8074084
:103A18008DF80560FDF78EFBA448009769468DF880
:103A280004408DF806408DF807408DF80560FDF7D5
:103A380081FB29469C48FDF70DFC2846FFF79EFAB6
:103A48009A483946FDF7F0FB08B9FFF7BDFC022399
:103A580069464FF480658DF804408DF80640934818
:103A68008DF80530012400958DF80740FDF762FBBD
:103A78002046FFF783FA8D482946FDF7D5FB08B99C
:103A8800FFF7A2FC88480121FDF7E2FB01244FF46F
:103A9800C053002502278548009369464FF40076F5
:103AA8008DF804508DF806508DF807408DF8057094
:103AB800FDF740FB7D48009669468DF804408DF877
:103AC80006508DF807408DF80570FDF733FB314639
:103AD8007648FDF7BFFB2046FFF750FA73484FF4CE
:103AE8000061FDF7A1FB10B9FFF76EFC06E06F4817
:103AF8004FF48051FDF798FB0028F5D001250024EC
:103B08004FF480574FF0020868488DF8075069460F
:103B18004FF4006600978DF804408DF806408DF844
:103B28000580FDF707FB61488DF8045069468DF85C
:103B3800075000968DF806408DF80580FDF7FAFAD3
:103B480031465A48FDF786FB2846FFF717FA5748CB
:103B58003946FDF769FB254608B9FFF735FC01240E
:103B680002275248009669468DF804508DF8065091
:103B78004FF480568DF807408DF80570FDF7DAFA96
:103B88004A488DF80650694600968DF804408DF82D
:103B980007408DF80570FDF7CDFA31464348FDF72B
:103BA80059FB2046FFF7EAF940484FF40061FDF75A
:103BB8003BFB254608B9FFF707FC00244FF40077C4
:103BC80002263A48009769468DF804508DF8064059
:103BD8008DF807408DF80560FDF7ACFA3946334893
:103BE800FDF736FB204600F06FFB4FF4F0532F48EB
:103BF800009369468DF804408DF806408DF807500B
:103C08008DF80560FDF796FA002000F0C1FB00284A
:103C1800FAD0002000F0BCFB0028FAD100F060FBCD
:103C280022484FF40071FDF715FB1E482021FDF7CF
:103C38000FFB1E484FF48061FDF7F6FA08B1FFF755
:103C4800C3FB4FF4C0530026022518480093694669
:103C580001244FF400778DF804608DF806608DF824
:103C680007508DF80550FDF765FA1048009769462A
:103C78008DF804408DF806608DF807408DF80550E2
:103C8800FDF758FA39460948FDF7E2FA2046FFF7EA
:103C980075F906484FF40061FDF7C6FA40B9FFF719
:103CA80093FB0CE0000C02400008024000000240B8
:103CB8004F484FF48051FDF7B7FA0028EFD04FF482
:103CC8009053002602254A480093694601244FF480
:103CD80000678DF804608DF806608DF807508DF840
:103CE8000550FDF727FA4248009769468DF80440C9
:103CF8008DF806608DF807408DF80550FDF71AFA23
:103D080039463B48FDF7A4FA2046FFF737F938480B
:103D18004FF40071FDF788FA10B9FFF755FB06E07C
:103D280033484FF48051FDF77FFA0028F5D04FF45F
:103D38002063002602252E480093694601244FF48B
:103D480080578DF804608DF806608DF807508DF85F
:103D58000550FDF7EFF92648009769468DF80440AD
:103D68008DF806608DF807408DF80550FDF7E2F9EB
:103D780039461F48FDF76CFA2046FFF7FFF81C4844
:103D88004FF40071FDF750FA10B9FFF71DFB06E07C
:103D980017484FF40061FDF747FA0028F5D00025D1
:103DA80002244FF4C0536946114800934FF400763B
:103DB8008DF804508DF806508DF807408DF80540B1
:103DC800FDF7B8F90123694609488DF804308DF8E4
:103DD800073000968DF806508DF80540FDF7AAF9D2
:103DE80003483146FDF736FA02B0BDE8F08100BF5E
:103DF800000002402DE9F7434FF480700121FDF7E0
:103E080067FE00F00BFC022057214BF6803200F0D1
:103E180043FC08B1FFF7D8FA5448554DDFF86891CC
:103E2800DFF868814FF44033002443604FF4706337
:103E3800C36004608460FCF711FA2846FCF704FAB2
:103E4800022601274FF0007329464A482B602F713C
:103E58002E756C71AC602C61FCF7CAF9032504233C
:103E68004548009369468DF805608DF804508DF833
:103E78000740FDF75FF908233F4800936946FDF7BF
:103E880059F931463B48A9F80040A8F80040FCF72A
:103E98000DFB31463A462B463648FCF7D9FA3246EE
:103EA8002B4629463348FCF7D3FA39463148FCF704
:103EB800EFF9324B4FF4FA721A604D4646461F46E8
:103EC8003C68002C3DD02B482D4CFCF70FFB1421EF
:103ED8002848FCF729FB182120802648FCF724FBFA
:103EE800284B1880228892B2962A0DD91A8892B245
:103EF800092A09D82988244A89B2B1F5FA7F03D05A
:103F08001188013189B21180228892B2092A0DD80C
:103F18001B889BB2962B09D932881C4B92B2B2F5FA
:103F2800FA7F03D01A88013292B21A802B889BB28A
:103F3800B3F5FA7FC4D133889BB2B3F5FA7FBFD10A
:103F480001240C480021FCF7A3F90CB9FFF73CFA4F
:103F5800002000F0B9F9002000F01AFA0028FAD081
:103F6800002000F0BDF903B0BDE8F083280C002064
:103F7800000C00200020014000000240F405002051
:103F8800FC0B0020500C0020CC050020CA050020A6
:103F980070B54FF4804086B00121FDF78DFD0620F5
:103FA8000121FDF765FD06AD0223002401268DF8E9
:103FB80004302D488DF806404FF48063694645F873
:103FC800183D8DF807608DF80560FDF7B3F80522F8
:103FD8002548264D0A21FDF74BF90823244800936C
:103FE8006946FDF7A7F8052203212148FDF740F9A6
:103FF8002048FDF72FFE4FF47A4304931023ADF8C1
:104008000A301C48ADF80C404FF4407302A9ADF8D3
:104018000830ADF81440ADF80E40FDF7ADFE154878
:104028003146FDF73DFF0A20FEF7A8FF4FF4FA736B
:104038002B602B68A3B10F480121FDF7E9FF10B9E8
:104048002B68002BF7D10B48FDF7A4FF4FF6FF7341
:10405800984204BF0134E4B21D2CEAD91E2C01D0C9
:10406800FFF7B2F906B070BD00040240F405002065
:10407800000802400038004070B586B023210222B3
:1040880001AB064604AC322000F0EEFE28210622E1
:104098002346322000F0E8FE9DF805309DF8041014
:1040A80003F0400303F0FF02002B0CBF1023402352
:1040B80011F0400F02AD00D0BAB10022A11891F959
:1040C8000100A15C01EB002191FBF3F1A95202323E
:1040D800062AF3D101AB32202321022200F0C4FECC
:1040E8009DF805305B0620D40BE0A118A05649784E
:1040F80001EB002191FBF3F1A9520232062AF4D117
:10410800E8E79DF8043003F03003202B0DD0302B66
:1041180008D0102BF7EE007AB6EE007A08BFF0EE62
:10412800477A04E0DFED0A7A01E0F5EE007A3046DE
:104138000023EA5E07EE102AB8EEC77A023387EE4C
:10414800277A062BA0EC017AF3D106B070BD00BF28
:104158009FCDAA3D30B585B040238DF8093007239F
:104168008DF80A30082300240DEB03008DF80B307E
:104178008DF808408DF80E408DF80C408DF80D40F4
:1041880001F04CF880238DF8043001A810238DF835
:1041980005308DF806408DF8074001F06EF81E20B6
:1041A800FEF7ECFE1D4B4FF4FA721A601D462B68A1
:1041B800F3B11B4C2046FFF75FFF94ED007AD4ED76
:1041C800027ABDEEC77A17EE103A5BB2002BB8BF81
:1041D8005B42DBB2052B0ED8FDEEE77A17EE903A7C
:1041E8005BB2002BB8BF5B42DBB2052B03D8DEE71E
:1041F800FFF7EAF80FE0002000F066F8002000F072
:10420800C7F80028FAD0002000F0C2F80128FAD038
:10421800002000F065F805B030BD00BFF4050020AF
:10422800380C0020704700000F4A1048118830B53C
:1042380061B90F4B1D886C1CA4B2302C1C8008BFC0
:104248001980012330F81500138030BD094B1C88F4
:10425800611C89B2198030294FF0000130F8140030
:1042680008BF1980118030BDC8050020AA6A00085F
:10427800C605002064000020FEE700000F4B13B5C0
:104288000446012153F82000FDF7F2FB0C4B33F8EC
:104298001430009301238DF804308DF80730022381
:1042A8008DF80530074B002253F824008DF80620BE
:1042B8006946FCF73FFF02B010BD00BF0C6B000859
:1042C8001C6B000868000020034B044A53F8203098
:1042D80032F810201A837047680000201C6B000811
:1042E800034B044A53F8203032F810205A837047A1
:1042F800680000201C6B0008044B054953F8203067
:1043080031F810105A694A405A6170476800002015
:104318001C6B000870B50646012086B00D460146A4
:10432800FDF7A6FB4FF480400121FDF7D1FB06A95C
:10433800012341F8103D154B002453F826008DF851
:104348000C408DF80F40FCF7F5FE012D1BD12046DF
:104358002146FDF7A1FE082304A88DF81530049521
:104368008DF814408DF81650FCF7EEFA06238DF8F8
:10437800043001A80F238DF805308DF806308DF82C
:104388000750FEF79DFD06B070BD00BF7800002005
:1043980008B5034B012153F82000FCF745FF08BD81
:1043A80078000020F8B5834C4FF4961305460E4666
:1043B800236081484FF40031FDF77CF928B1236868
:1043C8005A1E2260002BF4D135E07B480121FDF70D
:1043D80041F84FF48053236077487849FDF756F940
:1043E80028B923685A1E2260002BF5D123E07248B1
:1043F80094210022FDF74AF84FF4805323606E4859
:104408006F49FDF743F928B923685A1E2260002B2B
:10441800F5D110E068482946FDF7D0F84FF48053ED
:10442800236065486749FDF731F940B923685A1E8A
:104438002260002BF5D1BDE8F840FFF71DBF5E48AC
:104448003146FDF7BBF84FF4961323605A485E498E
:10445800FDF730F938B923685A1E2260002BF5D1D0
:10446800FFF70AFFF2E754480121FDF701F84FF47E
:104478009613236050484FF40031FDF71BF928B11B
:1044880023685A1E2260002BF4D183E04A48012198
:10449800FCF7E0FF4FF48053236047484749FDF796
:1044A800F5F828B923685A1E2260002BF5D171E06F
:1044B800414894210022FCF7E9FF4FF48053236020
:1044C8003D483F49FDF7E2F828B923685A1E2260A3
:1044D800002BF5D15EE038482946FDF76FF84FF418
:1044E8008053236034483849FDF7E4F828B9236835
:1044F8005A1E2260002BF5D14CE02F480121FCF711
:10450800A9FF4FF4805323602B482C49FDF7BEF8D0
:1045180028B923685A1E2260002BF5D13AE02648B4
:1045280094210122FCF7B2FF4FF480532360224DFF
:1045380026492846FDF7BEF828B923685A1E226086
:10454800002BF4D126E028460021FCF7A9FF2846D5
:1045580001212B8BFCF78CFF4FF480532360164806
:104568001B49FDF7A7F828B923685A1E2260002BBB
:10457800F5D10FE01048FDF723F84FF480530746B4
:1045880023600D4D2B889B0507D523685A1E226092
:10459800002BF6D1FFF770FE08E028460121FCF752
:1045A8007FFF28460B49FDF7A1F83846801B18BF46
:1045B8000120F8BD840000200054004001000300E1
:1045C80082000700800007000400001002000010AD
:1045D8004000001000040010193038B5C4B221465C
:1045E8002020FFF7DFFE214605462120FFF7DAFEEF
:1045F800284438BD08B5084810210022FCF72CFED5
:1046080044F6FF730BB1013BFCE70348102101227C
:10461800FCF722FE08BD00BF000C0240134B4FF40C
:1046280000121A60124A134B1A60134BA2F5093292
:10463800AC3A1A60114B00221A60114B2F221A60F3
:10464800104B4FF020521A600F4B4FF010521A6067
:104658000E4B4FF001521A600D4B4FF008521A6082
:104668000C4B4FF004521A60704700BF8C000020BA
:10467800B860024094000020A4000020D00500206B
:104688009C00002098000020A00000207C00002052
:10469800880000209000002064292DE9FF479146FA
:1046A8004FF0640704D8C1EB012191FBF7F7FFB283
:1046B800082001210024FDF7DBF9022601254FF02F
:1046C80010087D48CDF8008069468DF805608DF8A2
:1046D80004508DF806408DF80740FCF72BFD0720A5
:1046E8002946FDF7C5F94FF41073744800936946DD
:1046F8008DF804608DF805608DF806508DF8074038
:10470800FCF718FD6D4806210422FCF7B1FD0422D0
:104718006A480921FCF7ACFD4FF4A05368480093A0
:1047280069468DF804608DF805608DF806408DF8AF
:104738000740FCF7FFFC634804210622FCF798FDBC
:1047480006225F480A21FCF793FD5E48CDF80080F9
:104758006946FCF7EFFC062259480C21FCF788FD56
:1047680080235748009369468DF804608DF80560EA
:104778008DF806408DF80740FCF7DCFC062250480F
:104788000721FCF775FDFFF735FF29464FF40010A8
:10479800FDF792F94C48FCF77FFD4BF6FF73ADF837
:1047A80006304FF48063ADF80A304FF48043ADF81B
:1047B8000C304548454B009329464FF03308ADF877
:1047C8000440ADF80880FCF71FFE3F486946FCF737
:1047D80099FD30462946FFF7E5FDAF2182460420C2
:1047E800FFF7E0FD3A4BAF228244812105201A7081
:1047F800FFF7D8FD042182440620FFF7D3FD824449
:104808003846FFF7E9FE30469E21FFF7CBFD2146EB
:104818000AEB00060A20FFF7C5FD042106440E2016
:10482800FFF7C0FD214606442720FFF7BBFD0F21F7
:1048380006441F20FFF7B6FD0A2106441A20FFF799
:10484800B1FD0A2106441B20FFF7ACFD29460644AA
:104858004FF40040FDF730F91E48FDF7FBF94FF41F
:1048680000731C48CDF808906946ADF80240ADF8D1
:104878000440ADF80C40ADF80030ADF80630FDF757
:104888007BFAAEB968468DF800808DF801608DF826
:1048980002608DF80350FEF713FB0E4871212A467B
:1048A800FDF7A6FB0B482946FDF7FAFA304600E06B
:1048B800284604B0BDE8F087000C0240000402401E
:1048C800000802400000024000540040A086010099
:1048D800D4050020003C00402DE9F843264C274D24
:1048E80020682968FBF786FFA146A846002840D023
:1048F800234E3768002F2DD0D9F800001E4CFBF747
:1049080071FF0028F8D11F4D2068D8F80010FBF778
:104918008FFF1D492B688B60206833684FF6FF773F
:10492800BB4294BF0B610F61FBF7CEFE20680121EB
:10493800FBF714FF33682A682068BB4238BF1F465C
:1049480002EB4702DF1B2A6037600121BDE8F8430C
:10495800FBF704BF20683946FBF700FF2068296889
:10496800FBF766FF074B39461868BDE8F843FFF7C1
:1049780059BCBDE8F88300BF9400002098000020CF
:1049880080000020540C0020940C002008B5074833
:104998000221FDF73DFB38B1FFF746FCBDE80840B2
:1049A80001460248FDF7FABA08BD00BF003C0040C6
:1049B80038B5144C4FF48053054623601248022141
:1049C800FDF726FB28B923685A1E2260002BF5D173
:1049D80010E00D482946FDF7E1FA4FF480532360B3
:1049E80009480121FDF714FB38B923685A1E2260D3
:1049F800002BF5D1FEF7FCFC02E00348FDF7CAFAEC
:104A0800C0B238BDA800002000300140012A70B5AE
:104A18000C46064688BF41F040040B48082115465D
:104A2800FCF718FC2046FFF7C3FF0024A3B29D4201
:104A380004D0305DFFF7BCFF0134F7E702480821D6
:104A4800BDE87040FCF704BC001002402DE9F04FAF
:104A580089B00024064601214FF480508DF80240A9
:104A68008DF80340FDF734F801200146FDF700F802
:104A780010200121FCF7FCFF10200121534FDFF823
:104A88005091FCF7F5FF10200121FCF7F1FF0521FB
:104A98004FF0200A38460A460DEB0A05FCF7E8FBFA
:104AA800384606210522FCF7E3FB05223846072194
:104AB800FCF7DEFB45F81CAD4FF0020838462946E6
:104AC8008DF808808DF80A408DF80B808DF80980E4
:104AD800FCF730FB8023384629460193FCF72AFB74
:104AE800402329463846A7F550470193FCF722FB97
:104AF8003846FDF7AFF84FF40073ADF816301023C1
:104B0800ADF818300723ADF81C3038464FF48273DF
:104B180003A9ADF80E30ADF80C40ADF81040ADF873
:104B28001240ADF81440ADF81A40FDF7FBF83846CE
:104B38000121FDF7A7F901274FF0080B4846294640
:104B4800CDF804B08DF808708DF80A408DF809800A
:104B5800FCF7F0FA48465946FCF77AFB48462946DE
:104B680001978DF808408DF80A408DF809808DF876
:104B78000B40FCF7DFFA48462946CDF80480FCF7DD
:104B8800D9FA32789DF80230134372781343B27819
:104B98001343F27813438DF8023032799DF80330CD
:104BA800134372791343B2790DEB0800134351464E
:104BB8003A468DF80330FFF729FF0DF10300232152
:104BC8003A46FFF723FF09B0BDE8F08F0000024026
:104BD80000100240012A70B58CBF41F0C00441F0BA
:104BE8008004064608210B481546FCF733FB20468F
:104BF800FFF7DEFE0024A3B29D4205D00020FFF798
:104C0800D7FE30550134F6E702480821BDE8704068
:104C1800FCF71EBB0010024013B5044621210DF11C
:104C280007000122FFF7D6FF6278237813439DF827
:104C3800072022F03F0213430DF107002121012232
:104C48008DF80730FFF7E2FE02B010BD13B5012260
:104C5800044624210DF10700FFF7BCFF9DF807303B
:104C680023F010031C430DF10700242101228DF8C5
:104C78000740FFF7CBFE02B010BD00002DE9F0435E
:104C88004FF4001089B00121FCF716FF0220012122
:104C9800FCF7EEFE10200121FCF7EAFE424FDFF898
:104CA800109110200121FCF7E3FE10200121FCF7F0
:104CB800DFFE384606210422FCF7DAFA08AD0422A2
:104CC80038460921FCF7D4FA002402264023384646
:104CD800694645F8203D8DF804608DF806408DF84A
:104CE80007608DF80560FCF725FA4FF40073384625
:104CF800694607F5406700934FF00408FCF71AFA75
:104D080038466946CDF800808DF804408DF8064095
:104D18008DF807408DF80560FCF70CFA31464046DF
:104D2800FDF7BAF908230DEB0300CDF808804FF022
:104D380001088DF80D308DF80C408DF80E80FBF7CA
:104D480003FE08A94BF6FF73184AADF816304FF466
:104D5800806341F8102DADF81A3048464FF480436F
:104D6800ADF81C30ADF81440ADF81840FCF7CAFA9D
:104D780048464146FCF748FB1023384669460093ED
:104D88008DF804408DF806408DF805608DF80740D1
:104D9800FCF7D0F92023384669460093FCF7CAF996
:104DA80009B0BDE8F08300BF00040240A0860100FE
:104DB8000054004070B5022086B0294C0121FCF750
:104DC80057FE02200121FCF753FE2046062104224B
:104DD800FCF74EFA042220460921FCF749FA402341
:104DE8000126009300250223204669468DF80430E9
:104DF8008DF805308DF807508DF80660FCF79AF9A4
:104E08004FF40073204669460093FCF793F9314646
:104E18004FF40010FCF750FE4BF6FF73ADF80E3060
:104E28003323ADF810304FF48063ADF80C50ADF873
:104E3800123006AD4FF48043A4F5D834ADF81430E1
:104E4800084B45F8103D2046FCF726FA2046314627
:104E5800FCF7DAFA20462946FCF754FA06B070BD8A
:104E680000040240A0860100F7B51E464FF4204317
:104E780005460F4614460093FFF79CFF4FF4204366
:104E8800974800930121FCF7E5FA95489549FCF706
:104E9800FDFB30B9009B5A1E0092002BF5D1002073
:104EA8001BE14FF420438E48009329460022FCF76B
:104EB800EDFA8B488C49FCF7E9FB48B9009B5A1E70
:104EC8000092002BF5D186488849FCF70FFCD5E7FE
:104ED80083480121FCF798FA81483946FCF76EFBB4
:104EE8004FF4204300937E488149FCF7CFFB28B953
:104EF800009B5A1E0092002BF5D1D0E7012C41D11E
:104F080077480121FCF7A6FA75487649FCF7BEFBFD
:104F18000028F9D0724829460122FCF7B7FA4FF465
:104F2800204300936E4873496D4CFCF7C3FB48B9A6
:104F3800009B5A1E0092002BF4D120466B49FCF7C7
:104F4800D5FBDDE720460021FCF7AAFA72B6238BD1
:104F580063489BB201210193FCF78AFA62B6604864
:104F68005F4CFCF79FFB10F0400FF8D02046FCF791
:104F780027FB307023889D05FCD459480121FCF794
:104F88008FFA44E0022C67D155480121FCF762FAF8
:104F9800534C54492046FCF779FB0028F8D02046AA
:104FA80029460122FCF772FA40F6014323804FF4A8
:104FB800204300934A484F49FCF77CFB484B48B9CB
:104FC800009A511E0091002AF4D118464749FCF76F
:104FD8008DFBD9E772B61B8B41489BB20021019328
:104FE800FCF75EFA62B63E48FCF75CFB4407FAD56C
:104FF80072B63B4C01212046FCF73AFA238A3370FB
:10500800238A737062B6364B40F201421A8001203F
:1050180063E0009B5A1E0092002B3FF440AF3048DB
:105028003049FCF733FB0028F3D04FF420432C48D9
:10503800009329460122FCF729FA29482E49FCF752
:1050480025FB002843D1009B5A1E0092002BF4D167
:1050580023482649FCF74AFB4FF420432048009395
:105068000121FCF7F7F9DAE71D48FCF71BFB4007BD
:10507800FAD51B48FCF7A4FA013CA4B2032C05F8A6
:10508800010B03D0164A24B3032CEDD11448FCF7C6
:1050980009FB4107FAD512480021FCF701FA72B65C
:1050A8000F48FCF78DFA012128700D48FCF7E0F94C
:1050B8000B48FCF785FA687062B6AE1C084C2046AF
:1050C800FCF7F0FA4206F9D5238AAB70002435467E
:1050D800D8E713889B05FCD44FE703B0F0BD00BFA9
:1050E8000054004001000300820007000004021081
:1050F8008400070002000010020003002DE9F843B5
:105108008146884617461D46FFF754FE3D4E3E48E9
:105118004FF4204301213360FCF79CF934463A48A8
:105128003A49FCF7B3FA38B923685A1E2260002BB3
:10513800F5D10020BDE8F883334849460022FCF742
:10514800A5F94FF4204333602F483149FCF79EFA04
:1051580048B923685A1E2260002BF5D12A482D49E8
:10516800FCF7C4FAD2E74FF42043274823604146AE
:10517800FCF724FA24482849FCF788FA28B9236858
:105188005A1E2260002BF5D1D3E7012F11D14FF41D
:10519800204323601C482978FCF710FA1A481E4956
:1051A800FCF774FAB0B923685A1E2260002BF5D1B7
:1051B800BFE715482978FCF701FA013F15FA87F788
:1051C800BD420ED14FF4204323600F481249FCF72B
:1051D8005DFA88B10C480121FCF74AF90120BDE8C5
:1051E800F8830948FCF75EFA4307FAD5064815F82C
:1051F800011FFCF7E3F9E3E723685A1E2260002B3E
:10520800E3D196E7AC000020005400400100030001
:1052180082000700000402108400070013B504464A
:1052280000238DF806308DF80730FFF727FD227828
:105238009DF80630134362781343A27813438DF820
:10524800063022799DF80730134362791343A27917
:105258001343E27813438DF8073020210DF106033C
:1052680001223220FFF74AFF232101220DF1070313
:105278003220FFF743FF02B010BD13B504460DF10D
:105288000703212101223220FFF7EEFD62782378FF
:105298001343A2781343E27813439DF8072002F0E2
:1052A8000C0213438DF80730212101220DF1070369
:1052B8003220FFF723FF02B010BD000022230B802D
:1052C80000487047FA00002008B5812101F0D1F8A4
:1052D800002008BD10B50C7814F06004034622D0F5
:1052E800202C46D14A78023A092A17D8DFE802F07A
:1052F80010081616161616160B058A781E4B05E0AA
:1053080018461D4906E04A881C4B120A1A6030E00C
:105318001A491846012200F08EF92AE0184600F0D2
:10532800EDF9022426E04A780A2A19D00B2A1CD063
:10533800062A1FD14A88120A222A05D1CA8810498A
:105348004A2A28BF4A2209E0212A05D1CA880D49DC
:10535800092A28BF092201E021462246184601E011
:105368000949012200F067F904E0074B8A781A60BE
:1053780000E00024204610BDD8050020DC050020F0
:10538800B00000200C010020E005002010B58121AC
:10539800044600F0EEFF2046012100F0EAFF00205D
:1053A80010BD10B5812104460422032300F0C0FF7C
:1053B800204601210422032300F0BAFF002010BD7B
:1053C80010B5134690F81221032A0C4603D1812107
:1053D800224601F001F8002010BD10B5D0F8E835DC
:1053E80004461B699847032384F81231002010BD36
:1053F80008B590F8123180F81331042380F812317F
:10540800D0F8E835DB689847002008BD08B5D0F823
:10541800E435DB6903B19847002008BD08B5D0F82A
:10542800E4351B6A9847002008BD08B5D0F8E43574
:105438005B6A9847002008BD002110B50B4604465A
:10544800402200F075FF802140222046002300F012
:105458006FFF012384F81231D4F8E835A0785B682F
:105468009847002010BD13B56946044600F024F99A
:105478009DF8001001F01F03012B0CD006D3022B5E
:105488000ED12046694600F08BFA0EE020466946A8
:1054980000F042F909E02046694600F069FA04E0A4
:1054A800204601F0800100F0B0FF002002B010BDDE
:1054B80070B50446002947D190F81131022B37D135
:1054C800D0F83821D0F824319A4211D9C178D21AAB
:1054D8000129C0F8382104D1D0F828110B44C0F8AC
:1054E80028312046D4F8281192B200F0B5F81FE010
:1054F800D0F83C51B5FBF3F603FB16565EB99D4256
:1055080009D3D0F840319D4205D2324600F0A4F8C4
:10551800C4F840610CE0D4F8E435DB682BB194F8AA
:105528001221032A01D120469847204600F0B5F8F9
:1055380094F81631012B10D1094A236912685A6070
:10554800002384F8163108E0D0F8E4355B6923B10C
:1055580090F81221032A00D19847002070BD00BF9F
:10556800D00C002010B5044659BB90F81131032B1C
:1055780030D1D0F89023D0F87C339A4214D9C1782E
:10558800D21A0129C0F8902304D1D0F88013194405
:10559800C0F880139A4228BF1A462046D4F88013D0
:1055A80092B200F062F815E0D0F8E4351B6923B137
:1055B80090F81221032A00D19847204600F05EF89F
:1055C80008E0D0F8E4359B6923B190F81221032A4A
:1055D80000D19847002010BD2DE9F0410446164639
:1055E80098460D46069FFEF79FF820462946C4F8C0
:1055F800E485C4F8E875C4F8EC6500F04BFED4F80F
:10560800E8351B6898472046BDE8F041FEF7E4B846
:10561800D0F8E43510B504461B689847D4F8E83547
:105628009B689847002010BD08B5D0F8E4355B6842
:105638009847002008BD38B504460D46C4F83C21FB
:10564800C4F838211346022280F8112100212A4685
:1056580000F0C2FE002038BD10B50C4613460021EC
:10566800224600F0B9FE002010BD10B50C461346C6
:105678000021224600F095FE002010BD10B5002143
:10568800042304460A4680F811310B4600F0A4FEB4
:10569800204600F0ACFD002010BD10B50021052308
:1056A80004460A4680F811310B4600F07AFE20467F
:1056B80000F09DFD002010BD90F8CC350B7090F8DF
:1056C800CD354B7090F8CF2590F8CE3503EB0223FB
:1056D8004B8090F8D12590F8D03503EB02238B80CE
:1056E80090F8D32590F8D23503EB02239BB2CB80F8
:1056F800C0F84031012380F81131704710B580217E
:10570800044600F082FE2046002100F07EFE20467E
:10571800BDE8104000F06BBD73B54B7804460D46EC
:10572800092B00F21681DFE813F0C700020114010B
:10573800DA0014016E000A001401B9008D006B88AC
:105748001A0A013A062A00F20481DFE812F007007B
:105758001A0027000201020102010201D0F8EC350B
:1057680080781B680DF106019847EB88402B0146AD
:1057780003D094F81231012B35D10823ADF8063047
:1057880031E0D0F8E43580789B6A0DF1060198473E
:10579800022343700146C4F8F00524E0DBB2052B70
:1057A80000F2D780DFE803F003070B0F1317D0F8D8
:1057B800EC355B6812E0D0F8EC359B680EE0D0F869
:1057C800EC35DB680AE0D0F8EC351B6906E0D0F868
:1057D800EC355B6902E0D0F8EC359B690DF1060108
:1057E800A07898470146BDF80630002B00F0B58038
:1057F800EA88002A00F0B1809A4228BF1A46ADF81C
:105808000620204668E0AB88002B40F0A280EB8899
:10581800002B40F09E8090F81231AE78032B06F0F2
:105828007F0600F0968080F81461314600F02DFE66
:105838002046FFF723FF0EB1022300E0012384F87E
:1058480012318AE0A978464E0129317000F2818030
:1058580090F81231022B02D0032B09D079E00029ED
:1058680061D00121032380F8101180F8123111E072
:1058780039B9022380F8123180F81011FFF7D4FEED
:1058880051E090F8101101294DD0FFF7CDFE317885
:1058980084F810112046FFF7BBFE44E0EA88012A8D
:1058A80057D190F81231022B04D0032B51D100F5B7
:1058B800887111E02B490FE090F81231023B012B5F
:1058C80047D8294B00221A60D0F818210AB10222C1
:1058D8001A60254920460222FFF7ADFE3DE06B889D
:1058E800012B2DD0022B38D1AA8812F0FF0F34D10A
:1058F8000369120A013A5B68042A0FD8DFE802F04C
:10590800030507090B00012206E0022204E0032236
:1059180002E0042200E0052262F30613134A136032
:10592800012384F816312046FFF7A8FE15E090F809
:105938001231023B012B0CD86B88012B0DD10023AF
:10594800C4F81831D4F8E43520469B6829469847AE
:10595800E9E720462946FFF7D1FE002002B070BDD6
:10596800F0050020EC050020E4050020D00C002004
:1059780038B590F81231032B04460D460CD10B793B
:10598800012B09D8D0F8E4359B689847EB882BB9E8
:105998002046FFF773FE01E0FFF7B0FE002038BD98
:1059A80070B54E788A88012E04460D46D3B210D0C1
:1059B80027D3032E50D190F81221022A28D0032A87
:1059C80048D14A889AB95E0611D0194600F01DFDE3
:1059D8000DE090F81221022A1AD0032A3AD14A88F7
:1059E800002A39D1590608D0194600F028FDD4F804
:1059F800E43520469B68294698472046FFF73EFE37
:105A08002AE090F81251022D02D0032D06D021E091
:105A18005A0621D0194600F0F8FC1DE012F0800F5C
:105A28004FF028010D4A10D003F07F0301FB03015A
:105A380091F81E310BB1012300E0002313602046CA
:105A480006490222FFF7F7FD06E001FB030393F87E
:105A58007633EFE7FFF752FE002070BDE80500201F
:105A680030B5D0B10023DCB20133C51815F8015C9C
:105A7800002DF8D1631C5B0013800B7003234B705F
:105A88000138022310F8012F3AB15C1CE4B2CA5461
:105A980002330022DBB20A55F4E730BD37B50023E4
:105AA800104C019305460320FDF7ACFE2B68013C22
:105AB8001A69019213D0019A002AF4DA019A42F085
:105AC80001020192019A1A61064A19690191013A83
